:100000000C94F3210C9420220C9420220C94202296
:100010000C9420220C9420220C9420220C94202258
:100020000C9420220C9420220C9420220C94202248
:100030000C9420220C9420220C9420220C94202238
:100040000C9420220C944D860C9420220C94202297
:100050000C9420220C9420220C94CF8F0C941CE33F
:100060000C9420220C94A63D0C9420220C94202267
:100070000C9420220C9420220C9420220C942022F8
:100080000C9420220C9420220C9420220C942022E8
:100090000C9420220C9420220C9420220C94AADB95
:1000A0000C9420220C9420220C9420220C942022C8
:1000B0000C9420220C9420220C9420220C942022B8
:1000C0000C9420220C9420220C9420220C942022A8
:1000D0000C9420220C9420220C9420220C94202298
:1000E0000C942022084AD73B3BCE016E84BCBFFD56
:1000F000C12F3D6C74319ABD56833DDA3D00C77FF8
:1001000011BED9E4BB4C3E916BAAAABE0000008090
:100110003F05A84CCDB2D44EB93836A9020C50B91F
:10012000918688083CA6AAAA2ABE000000803F4DFE
:10013000383420582059205A2045006563686F3AAA
:100140000043616E6E6F7420656E74657220737506
:10015000626469723A20004D3234004D32332025FA
:1001600073006175746F25692E67004572726F7236
:100170003A006572726F722077726974696E6720D7
:10018000746F2066696C65004E6F74205344207054
:1001900072696E74696E67002F0053442070726933
:1001A0006E74696E67206279746520002E00446564
:1001B0006C6574696F6E206661696C65642C20469D
:1001C000696C653A200046696C652064656C6574ED
:1001D00065643A002E006F70656E206661696C651B
:1001E000642C2046696C653A200057726974696E08
:1001F0006720746F2066696C653A20002E006F706E
:10020000656E206661696C65642C2046696C653A90
:1002100020002E006F70656E206661696C65642C2D
:100220002046696C653A200046696C652073656CF0
:100230006563746564002053697A653A20004669F5
:100240006C65206F70656E65643A20002E006F70DB
:10025000656E206661696C65642C2046696C653A40
:10026000200053442063617264206F6B006F7065DF
:100270006E526F6F74206661696C656400766F6C96
:10028000756D652E696E6974206661696C656400C0
:10029000534420696E6974206661696C0065636807
:1002A0006F3A0048617264636F64656420446566F8
:1002B00061756C742053657474696E6773204C6F3C
:1002C000616465640053746F72656420736574744F
:1002D000696E677320726574726965766564005330
:1002E000657474696E67732053746F72656400651A
:1002F00063686F3A004572726F723A0053544F5000
:100300005045442E20005072696E746572207374DB
:100310006F707065642064756520746F20657272FB
:100320006F72732E2046697820746865206572723A
:100330006F7220616E6420757365204D39393920E4
:10034000746F20726573746172742E202854656D09
:10035000706572617475726520697320726573656A
:10036000742E205365742069742061667465722050
:1003700072657374617274696E6729004B494C4CE5
:1003800045442E20005072696E7465722068616C5D
:100390007465642E206B696C6C28292063616C6C19
:1003A000656421006F6B00526573656E643A2000CE
:1003B0002200556E6B6E6F776E20636F6D6D616E90
:1003C000643A2022007A5F6D61783A20007A5F6D8E
:1003D000696E3A2000795F6D61783A2000795F6D2F
:1003E000696E3A2000785F6D61783A2000785F6D21
:1003F000696E3A20005A3A00593A0020436F756EF0
:100400007420583A2000453A005A3A00593A0058A8
:100410003A004649524D574152455F4E414D453A8B
:100420004D61726C696E2056313B20537072696E5B
:100430007465722F6772626C206D617368757020CD
:10044000666F722067656E36204649524D5741529D
:10045000455F55524C3A687474703A2F2F7777770E
:100460002E6D656E64656C2D70617274732E636F92
:100470006D2050524F544F434F4C5F564552534995
:100480004F4E3A312E30204D414348494E455F543E
:100490005950453A42434E33442B20455854525507
:1004A0004445525F434F554E543A310A0042656409
:1004B00020646F6E652E0020423A0020453A0054B9
:1004C0003A004265642048656174696E672E004891
:1004D000656174696E6720646F6E652E0020573AFF
:1004E0000020453A00543A0048656174696E672EF1
:1004F0002E2E002042403A0020403A00202F0020BB
:10050000423A00202F006F6B20543A002569206D7D
:10051000696E2C2025692073656300456E64206632
:10052000696C65206C69737400426567696E20664A
:10053000696C65206C697374004E6F206D6F766511
:100540002E00526573756D696E67207072696E74E6
:10055000005761697420666F7220757365722E2E64
:100560002E00536C6565702E2E2E000080724300A5
:10057000005243000048430000A0400000A040009B
:1005800000803F01FFFF0080724300000000000078
:1005900000000000000000000000000000000080DB
:1005A00072430000524300004843256920686F757C
:1005B0007273202569206D696E7574657300446FD0
:1005C0006E65207072696E74696E672066696C650D
:1005D0000053544F505045442E20005072696E74A1
:1005E00065722073746F7070656420647565207423
:1005F0006F206572726F72732E204669782074685E
:1006000065206572726F7220616E6420757365205B
:100610004D39393920746F20726573746172742E8C
:10062000202854656D7065726174757265206973F8
:100630002072657365742E2053657420697420617F
:10064000667465722072657374617274696E67296D
:10065000006F6B004E6F204C696E65204E756D62A9
:100660006572207769746820636865636B73756D64
:100670002C204C617374204C696E653A20004E6FDB
:1006800020436865636B73756D2077697468206CAF
:10069000696E65206E756D6265722C204C61737495
:1006A000204C696E653A2000636865636B73756DF5
:1006B000206D69736D617463682C204C61737420C4
:1006C0004C696E653A20004C696E65204E756D620E
:1006D0006572206973206E6F74204C617374204CB6
:1006E000696E65204E756D6265722B312C204C61F0
:1006F0007374204C696E653A20004D3131300044EE
:100700006F6E6520736176696E672066696C652E11
:10071000006F6B004D3239002020506C616E6E65A9
:100720007242756666657242797465733A2000207C
:1007300046726565204D656D6F72793A200053658C
:1007400070203234203230313400436F6D70696C68
:1007500065643A2000286E6F6E652C2064656661C2
:10076000756C7420636F6E6669672900207C204178
:100770007574686F723A20005365702032342032ED
:100780003031342031303A30323A323500204C6149
:10079000737420557064617465643A2000312E30A2
:1007A0002E30004D61726C696E200020536F6674AC
:1007B00077617265205265736574002057617463B8
:1007C00068646F67205265736574002042726F77AA
:1007D0006E206F75742052657365740020457874BF
:1007E00065726E616C20526573657400506F776539
:1007F000725570007374617274002200656E7175B9
:1008000065696E672022002200656E717565696EEC
:10081000672022006563686F3A0020746F6F206C58
:100820006F6E6720657874727573696F6E20707271
:100830006576656E7465640020636F6C642065780E
:1008400074727573696F6E2070726576656E74650B
:1008500064007C3C3E5E2B3D3F2F5B5D3B2C2A229F
:100860005C0045313A200045303A20005A3A2000D9
:10087000593A2000583A20004D53312C4D53322024
:1008800050696E730A0024F404D9201BC40C5C0E5A
:100890009804C4095F0265077101F405F900FB04BF
:1008A000B30048048700C1036900580355000303DF
:1008B0004500BE023A008402310053022A00290298
:1008C000250004022000E4011C00C8011900AF014A
:1008D00017009801140084011300710110006101D8
:1008E000100051010E0043010D0036010B002B01D9
:1008F0000B0020010B00150109000C010900030188
:100900000800FB000800F3000800EB000700E4000B
:100910000600DE000600D8000600D2000600CC006B
:100920000500C7000500C2000500BD000400B900B5
:100930000400B5000400B1000400AD000400A900EB
:100940000400A5000300A20003009F0004009B0018
:10095000030098000300950002009300030090003C
:1009600003008D0002008B00030088000200860057
:10097000020084000300810002007F0002007D006D
:1009800002007B000200790002007700010076007F
:1009900002007400020072000100710002006F008A
:1009A00002006D0001006C0002006A000100690095
:1009B000020067000100660001006500010064009C
:1009C00002006200010061000100600001005F00A0
:1009D00002005D0001005C0001005B0001005A00A4
:1009E00001005900010058000100570001005600A5
:1009F00001005500010054000100530000005300A5
:100A000001005200010051000100500001004F00A0
:100A100001004E0000004E0001004D0001004C009E
:100A200001004B0000004B0001004A00010049009A
:100A30000100480000004800010047000100460096
:100A40000000460001004500000045000100440090
:100A5000010043000000430001004200000042008A
:100A600001004100000041000100400001003F0082
:100A700000003F0001003E0000003E0001003D007C
:100A800000003D0001003C0000003C0000003C0074
:100A900001003B0000003B0001003A0000003A006A
:100AA0000100390000003900010038000000380062
:100AB0000000380001003700000037000100360058
:100AC000000036000000360001003500000035004F
:100AD0000000350001003400000034000000340044
:100AE0000100330000003300000033000100320039
:100AF000000032000000320001003100000031002F
:100B00000000310001003000000030000000300023
:100B100001002F0000002F0000002F0000002F0018
:100B200001002E0000002E0000002E0001002D000C
:100B300000002D0000002D0000002D0001002C0001
:100B400000002C0000002C0000002C0001002B00F5
:100B500000002B0000002B0000002B0001002A00E9
:100B600000002A0000002A0000002A0001002900DD
:100B700000002900000029000000290000002900D1
:100B800001002800000028000000280000002800C4
:100B900000002800010027000000270000002700B7
:100BA00000002700000027000100260000002600AA
:100BB000000026000000260000002600010025009D
:100BC0000000250000002500000025000000250091
:100BD0000000250001002400000024000000240083
:100BE0000000240000002400010023000000230076
:100BF0000000230000002300000023000000230069
:100C0000000023000100220000002200000022005A
:100C1000000022000000220000002200010021004C
:100C20000000210000002100000021000000210040
:100C30000000210000002100010020000000200031
:100C40000000200000002000000020000000200024
:100C5000000020000000200001001F0000001F0015
:100C600000001F0000001F0000001F0000001F0008
:100C700000001F0001001E0000001E0000001E00FA
:100C800000001E00000024F4D43050C38E20C2A205
:100C90004017828B7011127A910D816CD90AA8616C
:100CA000E108C7586607615143061E4B5D05C14503
:100CB000A7041A411104093D9803713931034036E4
:100CC000DB0265339102D4305402802E1D02632C66
:100CD000EE01752AC501B028A001102781018F25DA
:100CE00064012B244B01E0223401AC211F018D2033
:100CF0000D01801FFC00841EED00971DDF00B81C55
:100D0000D200E61BC600201BBC00641AB200B21958
:100D1000A8000A19A0006A189900D117910040177D
:100D20008B00B516840031167E00B31579003A1594
:100D30007300C7146F0058146A00EE13660088131E
:100D4000630025135E00C7125B006C12570015127A
:100D50005400C111510070114F0021114B00D610E9
:100D600049008D1047004610440002104200C00F99
:100D70004000800F3E00420F3C00060F3B00CB0EB0
:100D80003800930E37005C0E3500270E3400F30D4B
:100D90003200C10D3100900D3000600D2E00320D7B
:100DA0002D00050D2C00D90C2B00AE0C2900850C54
:100DB00029005C0C2700350C27000E0C2600E80BE0
:100DC0002400C40B2400A00B23007D0B23005A0B2E
:100DD0002100390B2100180B2000F80A1F00D90A46
:100DE0001E00BB0A1E009D0A1D00800A1D00630A2A
:100DF0001C00470A1B002C0A1B00110A1A00F709E5
:100E00001A00DD091900C4091900AB09190092097B
:100E100017007B091800630917004C0916003609F2
:100E20001600200916000A091500F5081500E0084B
:100E30001400CC081400B8081400A408140090088A
:100E400013007D0812006B081300580812004608B2
:100E500012003408110023081100120811000108C3
:100E60001100F0071000E0071000D0071000C007C5
:100E70001000B0070F00A107100091070E008307B4
:100E80000F0074070F0065070E0057070E00490793
:100E90000E003B070D002E070E0020070D00130764
:100EA0000D0006070D00F9060C00ED060D00E0062A
:100EB0000C00D4060C00C8060C00BC060C00B006E2
:100EC0000C00A4060B0099060C008D060B00820690
:100ED0000B0077060B006C060B0061060A00570634
:100EE0000B004C060A0042060A0038060A002E06CD
:100EF0000A0024060A001A060A001006090007065E
:100F00000A00FD050900F4050900EB050900E205EA
:100F10000900D9050900D0050900C7050900BE056B
:100F20000900B5050800AD050800A50509009C05E8
:100F30000800940508008C050800840508007C055D
:100F40000800740508006C050700650508005D05CC
:100F50000700560508004E05070047050700400535
:100F6000080038050700310507002A05070023059A
:100F700007001C050600160507000F0507000805F9
:100F8000060002050700FB040600F5040700EE0456
:100F90000600E8040600E2040700DB040600D504AE
:100FA0000600CF040600C9040600C3040600BD0401
:100FB0000600B7040600B1040500AC040600A60450
:100FC0000600A00405009B0406009504050090049B
:100FD00006008A04050085040500800406007A04E2
:100FE000050075040500700405006B040500660427
:100FF0000500610405005C04050057040500520467
:1010000005004D04050048040500430405003E04A6
:1010100004003A04050035040500300404002C04E3
:10102000050027040400230405001E0404001A041C
:10103000040016040500110404000D040400090452
:1010400005000404040000040400FC030400F80389
:101050000400F4030400F0030400EC030400E803BC
:101060000400E4030400E0030400DC030400D803EC
:101070000400D4030400D0030400CC030400C8031C
:101080000300C50303006563686F3A00656E64730F
:10109000746F7073206869743A205A00205A3A00BD
:1010A000656E6473746F7073206869743A205900B8
:1010B00020593A00656E6473746F707320686974A8
:1010C0003A20580020583A00656E6473746F70734C
:1010D000206869743A20004572726F723A00457256
:1010E000723A204D415854454D50204245440054D9
:1010F000656D70657261747572652068656174658F
:101100006420626564207377697463686564206F26
:1011100066662E204D415854454D502074726967C3
:101120006765726564202121004572723A204D493D
:101130004E54454D50003A2045787472756465727E
:10114000207377697463686564206F66662E204D2E
:10115000494E54454D5020747269676765726564E5
:101160002021004572723A204D415854454D50009F
:101170003A20457874727564657220737769746378
:10118000686564206F66662E204D415854454D5069
:1011900020747269676765726564202100202D20C4
:1011A000496E76616C6964206578747275646572E5
:1011B000206E756D62657220210070012C01900116
:1011C0002701B0012201C0011D01F0011801100228
:1011D000130130020E016002090190020401C002F5
:1011E000FF000003FA004003F5008003F000D00385
:1011F000EB002004E6007004E100E004DC004005A0
:10120000D700C005D2004006CD00D006C800800738
:10121000C3003008BE00F008B900C009B400B00A2D
:10122000AF00B00BAA00D00CA500000EA000500F1C
:101230009B00C01096005012910000148C00C01545
:101240008700B0178200B0197D00D01B7800001E07
:10125000730040206E0090226900F0246400402753
:101260005F0090295A00E02B5500102E50002030CE
:101270004B0010324600E033410090353C001037FF
:10128000370070383200A0392D00B03A2800A03B5A
:101290002300603C1E00103D1900903D1400103EDC
:1012A0000F00703E0A00C03E0500003F000050499C
:1012B00044204175746F74756E652066696E69733C
:1012C000686564212050757420746865204B702C0B
:1012D000204B6920616E64204B6420636F6E7374D1
:1012E000616E747320696E746F20436F6E666967F8
:1012F00075726174696F6E2E6800504944204175A3
:10130000746F74756E65206661696C656421207404
:10131000696D656F75740020403A006F6B20543A18
:10132000006F6B20423A00504944204175746F743D
:10133000756E65206661696C6564212054656D7009
:101340006572617475726520746F6F206869676873
:1013500000204B643A2000204B693A2000204B705B
:101360003A200020436C6173696320504944200097
:101370002054753A2000204B753A2000206D61788A
:101380003A2000206D696E3A200020643A20002047
:10139000626961733A200000000000000000000054
:1013A0000000007FFFE000000000000000000000DF
:1013B00000007000E00000000000000000000000DD
:1013C00000630C600000000000000000000000004E
:1013D000470E200000000000000000000000004F49
:1013E0000F200000000000000000000000005F0F60
:1013F000A00000000000000000000000005E07A048
:101400007F80003FC0003FC000410400406020FBDF
:10141000C00079E00079E00020820040F020F3C0B5
:101420000076E00076E00020820040F020EBC00073
:101430007EE0007EE0004104004060207B80003DB3
:10144000C00039C0008208005E07A07B80003BC05E
:10145000003EC0010410005F0FA0FBC00077E00059
:1014600076E0010410004F0F20FBC00070E000790F
:10147000E000820800470E20FFC0007FE0007FE010
:1014800000410400630C603F00001F80001F8000CB
:101490000000007000E01E00000F00000F0001FFC0
:1014A000FF807FFFE00C0000060000060001FFFF48
:1014B00080000000000000000000000000000000AC
:1014C0007FFFE0000000000000000000000000704E
:1014D00000E000000000000000000000000061F8D3
:1014E0006000000000000000000000000041F82043
:1014F00000000000000000000000000040F020009C
:10150000000000000000000000000040602000001B
:10151000000000000000000000005801A07F8000D3
:101520003FC0003FC0004104005C63A0FBC00079E5
:10153000E00079E0002082005EF7A0F3C00076E0D2
:101540000076E0002082005EF7A0EBC0007EE000A5
:101550007EE0004104005C63A07B80003DC0003958
:10156000C0008208005801A07B80003BC0003EC044
:1015700001041000406020FBC00077E00076E0012D
:1015800004100040F020FBC00070E00079E0008211
:10159000080041F820FFC0007FE0007FE000410428
:1015A0000061F8603F00001F80001F800000000005
:1015B0007000E01E00000F00000F0001FFFF807FA1
:1015C000FFE00C0000060000060001FFFF800000A5
:1015D00000B02000B02000B02000B020002D2D3A37
:1015E0002D2D004E6F2043617264005072696E743D
:1015F0002066726F6D2053440053746F70205072D8
:10160000696E7400526573756D65205072696E74F1
:10161000005061757365205072696E7400436F6E7F
:1016200074726F6C00507265706172650054756EF3
:101630006500496E666F2073637265656E00F92EF2
:101640002E004D61696E004D3234004D323320253D
:1016500073004D383420582059205A2045005265D7
:1016600073746F7265204661696C73616665004CC6
:101670006F6164206D656D6F72790053746F726570
:10168000206D656D6F7279004D6F74696F6E0054D7
:10169000656D7065726174757265004D61696E008B
:1016A0004573746570732F6D6D0045737465707349
:1016B0002F6D6D005A73746570732F6D6D005A73C2
:1016C000746570732F6D6D005973746570732F6D31
:1016D0006D005973746570732F6D6D005873746568
:1016E00070732F6D6D005873746570732F6D6D007E
:1016F000412D7265747261637400412D726574725C
:1017000061637400416D6178206500416D617820EE
:101710006500416D6178207A00416D6178207A0022
:10172000416D6178207900416D6178207900416DCB
:101730006178207800416D6178207800565472619C
:1017400076206D696E005654726176206D696E0068
:10175000566D696E00566D696E00566D6178206534
:1017600000566D6178206500566D6178207A0056CC
:101770006D6178207A00566D6178207900566D6130
:1017800078207900566D6178207800566D61782058
:10179000780056652D6A65726B0056652D6A657214
:1017A0006B00567A2D6A65726B00567A2D6A6572E7
:1017B0006B005678792D6A65726B005678792D6AC0
:1017C00065726B004879737465726573697300485C
:1017D00079737465726573697300416363656C0046
:1017E000416363656C00436F6E74726F6C0050727E
:1017F00065686561742041425320436F6E660050F6
:1018000072656865617420504C4120436F6E6600BC
:101810005049442D43005049442D43005049442D24
:1018200044005049442D44005049442D490050493A
:10183000442D49005049442D50005049442D50003A
:101840002002204661637400200220466163740018
:101850002002204D6178002002204D617800200296
:10186000204D696E002002204D696E004F666600B3
:101870004F6E20004F6666004F6E20004175746FFA
:1018800074656D700046616E207370656564004616
:10189000616E207370656564004265640042656432
:1018A000004E6F7A7A6C65004E6F7A7A6C650043F1
:1018B0006F6E74726F6C0053746F7265206D656D1E
:1018C0006F72790042656400426564004E6F7A7AF7
:1018D0006C65004E6F7A7A6C650046616E2073709D
:1018E0006565640046616E207370656564005465CB
:1018F0006D70657261747572650053746F726520E6
:101900006D656D6F72790042656400426564004EDA
:101910006F7A7A6C65004E6F7A7A6C650046616EFC
:101920002073706565640046616E20737065656440
:101930000054656D7065726174757265004D6F76E7
:1019400065204178697300436F6F6C646F776E0038
:101950005072656865617400473238004175746F74
:1019600020486F6D65004D38340044697361626CC6
:1019700065205374657070657273004D61696E0007
:101980004D6F766520302E316D6D004D6F76652080
:10199000316D6D004D6F76652031306D6D00507288
:1019A0006570617265004578747275646572004D8A
:1019B0006F7665205A004D6F76652059004D6F7621
:1019C000652058004D6F7665204178697300457831
:1019D000747275646572005A0050726F7665732078
:1019E0004A6F72646920656978205A00590058006E
:1019F00050726568656174204C6179427269636BED
:101A00000050726568656174204C6179576F6F642E
:101A100000507265686561742050564100507265CF
:101A200068656174204E796C6F6E005072656865F0
:101A300061742041425300507265686561742050A2
:101A40004C41005072657061726500466C6F7700A2
:101A5000466C6F770046616E207370656564004662
:101A6000616E207370656564004265640042656460
:101A7000004E6F7A7A6C65004E6F7A7A6C6500530F
:101A800070656564005370656564004D61696E0042
:101A9000436172642072656D6F76656400436172A4
:101AA0006420696E73657274656400000000000054
:101AB00000000000000000000000000000003F8067
:101AC0000000000000003F800000000000003F8098
:101AD0000000000000E03F806000000001F07FC0D7
:101AE000F800000007FFFFF9FC00000007FFFFFF00
:101AF000FC00000007FFFFFFFC00000007FFFFFFE6
:101B0000FC00000007FF803FFC00000007FC00070E
:101B1000FC0000000FF07FC1FE0000001FC3FFF8B3
:101B20007F000007FF8FFFFE3FFC0007FF1FFFFF46
:101B30001FFC000FFE3FFFFF8FFE000FFCFFFFFFAB
:101B4000E7FE001FF8FFFFFFE3FF000FF1FFFFFFBD
:101B5000F1FE0007F3FFFFFFF9FC0003E7FFFFFFC3
:101B6000FCF80003E7FFFFFFFCF80007CFFFFFFFD3
:101B7000FC7C0007CFFFFFFFFE7C0007CFFFE0FFEC
:101B8000FE7C000FCFFFC07FFE7C007F9FFF803F69
:101B9000FF3FC07F9FFF001FFF3FC07F9FFF001FD1
:101BA000FF3FC07F9FFF001FFF3FC07F9FFF001FC1
:101BB000FF3FC07F9FFF001FFF3FC07F9FFF803F11
:101BC000FF3FC00FCFFFC07FFE7E0007CFFFE0FFCB
:101BD000FE7C0007CFFFFFFFFE7C0007CFFFFFFF6B
:101BE000FE7C0003E7FFFFFFFCF80003E7FFFFFFB9
:101BF000FCF80007F3FFFFFFF9FC000FF1FFFFFF08
:101C0000F1FE001FF9FFFFFFF3FE000FFCFFFFFFD7
:101C1000E7FE000FFE7FFFFFCFFE0007FF1FFFFF65
:101C20001FFC0007FF8FFFFE3FFC00001FC3FFF8F3
:101C30007F0000000FF07FC1FE00000000000000E8
:101C40000000000000000000000000000000000094
:101C500000000000007FFFFFC0000000003FFFFF0A
:101C600080000000000FFFFE000000000003FFFCEA
:101C7000000000000001FFF00000000000007FE015
:101C80000000000000003F800000000000000E0087
:101C90000000000000000400000000000000000040
:101CA0000000000000000000000000000000000034
:101CB0000000000000000000000000000000000024
:101CC0000000000000000000000000000000000014
:101CD0000000000000000000000000000000000004
:101CE00000000000000000000000060900FE0601E0
:101CF0008902FE20FFFE07FE06FE00000006000728
:101D0000010606060200808080800080030303062F
:101D10000103A0A0A00507070600FF5050F850F8E7
:101D200050500509090600FE2070A8A07028A87070
:101D3000200608080600FF40A8481020485408055F
:101D400007070600FF609090609890680103030603
:101D500002038080800207070602FF4080808080A7
:101D600080400207070602FF804040404040800557
:101D700005050600008850F8508805050506000096
:101D80002020F820200204040602FEC04040800506
:101D90000101060002F8020202060200C0C00406A9
:101DA000060601001010204080800406060601008F
:101DB00060909090906003060606010040C040408D
:101DC00040E00406060601006090102040F0040682
:101DD00006060100F020601010E00506060600006F
:101DE00010305090F810040606060100F080E01054
:101DF00010E00406060601006080E0909060040692
:101E000006060100F01010204040040606060100FE
:101E100060906090906004060606010060909070EB
:101E20001060020505060200C0C000C0C00207071E
:101E30000602FEC0C000C040408005050506000047
:101E40001860806018050303060001F800F8050516
:101E500005060000C0300830C00407070601006016
:101E60009010604000400506060600007090A8B083
:101E70008070050606060000205088F88888050650
:101E800006060000F088F08888F0040606060100C7
:101E9000609080809060040606060100E0909090BB
:101EA00090E0040606060100F080E08080F0040661
:101EB00006060100F080E08080800406060601002E
:101EC000609080B090600406060601009090F0904B
:101ED0009090030606060100E040404040E0050601
:101EE0000606000038101010906004060606010077
:101EF00090A0C0A09090040606060100808080801B
:101F000080F005060606000088D8A8A88888040680
:101F10000606010090D0B0909090050606060000DD
:101F2000708888888870040606060100E09090E0BA
:101F300080800407070601FF609090D0B060100415
:101F40000606060100E09090E09090040606060167
:101F500000609040209060050606060000F82020F2
:101F600020202004060606010090909090906004C6
:101F70000606060100909090F060600506060600D7
:101F8000008888A8A8D88805060606000088502082
:101F9000205088050606060000888850202020046E
:101FA0000606060100F010204080F0030606060138
:101FB00000E080808080E00406060601008080400A
:101FC000201010030606060100E020202020E00576
:101FD00003030600032050880501010600FEF802F5
:101FE000020206020480400404040601007090907E
:101FF000700406060601008080E09090E00404046E
:102000000601007080807004060606010010107042
:1020100090907004040406010060B0C070040606CD
:10202000060100205040E040400406060601FE6024
:1020300090907010600406060601008080E0909089
:10204000900306060601004000C04040E003080877
:102050000601FE200060202020A0400406060601A4
:10206000008080A0C0A090030606060100C040408A
:102070004040E0050404060000D0A8A88804040439
:10208000060100E090909004040406010060909026
:10209000600406060601FEE09090E08080040606DB
:1020A0000601FE709090701010040404060100A058
:1020B000D0808004040406010070C030E0040606ED
:1020C0000601004040E04050200404040601009056
:1020D0009090700404040601009090606005040470
:1020E00006000088A8A8500404040601009060605F
:1020F000900406060601FE9090907090600404041F
:10210000060100F02040F0030707060100204040D0
:10211000804040200107070602FF80808080808089
:1021200080030707060100804040204040800402F1
:102130000206010350A0FFFFFFFFFFFFFFFFFFFFAD
:10214000FFFFFFFFFFFFFFFFFFFFFFFFFFFFFFFF9F
:10215000FFFFFFFFFFFFFF0000000600070106066C
:102160000602008000808080800406060601FF20B1
:1021700070A0A070200507070600FF304840F0401F
:1021800040F8050505060000A8508850A805060679
:102190000600008850F820F8200107070602FF809B
:1021A0008080008080800407070601FF70806090B7
:1021B0006010E0030101060105A006070706000004
:1021C000788494A494847803050506010160A060D6
:1021D00000E00505050600002850A0502804030370
:1021E000060100F01010040101060102F0060707C5
:1021F0000600007884B4A4A48478040101060105D3
:10220000F00403030601026090600507070600FF63
:102210002020F8202000F803050506010140A02039
:1022200040E0030505060101C0204020C002020273
:1022300006020440800405050601FF9090B0D0809E
:1022400005060606000078E8E8682828010101066E
:102250000202800202020602FE408003050506011A
:102260000140C04040E003050506010140A04000D8
:10227000E0050505060000A0502850A00508080646
:1022800000FF40C04050703078100508080600FF7D
:1022900040C04050680810380508080600FFC020FC
:1022A0004030F0307810040707060100200020605D
:1022B0008090600507070600004020205070888845
:1022C00005070706000010202050708888050707C2
:1022D000060000205020507088880507070600007F
:1022E00028502050708888050707060000500020FD
:1022F000507088880507070600002050205070881D
:102300008805060606000078A0F0A0A0B80408081A
:102310000601FE609080809060204004070706015F
:10232000004020F080E080F0040707060100204014
:10233000F080E080F00407070601002050F080E004
:1023400080F00407070601005000F080E080F003F1
:1023500007070601008040E0404040E00307070611
:1023600001002040E0404040E00307070601004034
:10237000A0E0404040E0030707060100A000E04065
:102380004040E00506060600007048E84848700432
:10239000070706010050A090D0B0909004070706F0
:1023A0000100402060909090600407070601002023
:1023B00040609090906004070706010020506090F4
:1023C00090906004070706010050A0609090906014
:1023D0000407070601005000609090906005050515
:1023E00006000088502050880408080601FF10707D
:1023F000B0B0D0D0E08004070706010040209090E4
:102400009090600407070601002040909090906033
:102410000407070601002050909090906004070781
:10242000060100500090909090600507070600009C
:102430001020885020202004060606010080E0902D
:1024400090E0800406060601006090A0A090A00421
:1024500007070601004020007090907004070706EF
:1024600001002040007090907004070706010020D2
:1024700050007090907004070706010050A0007093
:102480009090700406060601005000709090700451
:102490000707060100205020709090700504040684
:1024A000000070A8B0780406060601FE70808070F7
:1024B000204004070706010040200060B0C07004FF
:1024C000070706010020400060B0C070040707063F
:1024D000010020500060B0C07004060606010050E4
:1024E0000060B0C070030707060100804000C040D4
:1024F00040E0030707060100204000C04040E00321
:10250000070706010040A000C04040E003060606A1
:102510000100A000C04040E0040707060100306051
:10252000107090906004070706010050A000E09032
:10253000909004070706010040200060909060041E
:10254000070706010020400060909060040707061E
:1025500001002050006090906004070706010050C1
:10256000A000609090600406060601005000609094
:1025700090600505050600002000F8002004040412
:1025800006010070B0D0E0040707060100402000FB
:1025900090909070040707060100204000909090F2
:1025A0007004070706010020500090909070040608
:1025B000060601005000909090700409090601FE83
:1025C0002040009090907090600408080601FE8002
:1025D00080E09090E080800408080601FE500090A2
:1025E000909070906000060900FE070199032B206F
:1025F000FFFE08FE07FE00000006000001070706B8
:10260000020080808080800080030303060104A014
:10261000A0A00507070600005050F850F8505005DC
:1026200007070600002070A0702870200507070625
:10263000000048A8502050A8900507070600004059
:10264000A0A040A8906801030306020480808003D4
:10265000070706010020408080804020030707060E
:1026600001008040202020408005050506000188EB
:1026700050F850880505050600012020F8202003A9
:1026800003030601FF604080050101060003F80313
:1026900003030601FF40E0400507070600000808A5
:1026A0001020408080050707060000205088888899
:1026B00050200507070600002060A0202020F80514
:1026C0000707060000708808304080F805070706F5
:1026D0000000F80810300888700507070600001091
:1026E000305090F81010050707060000F880B0C8B9
:1026F000088870050707060000304080B0C8887061
:10270000050707060000F8081010204040050707DD
:10271000060000708888708888700507070600002A
:10272000708898680810600307070601FF40E040C2
:102730000040E0400307070601FF40E04000604022
:102740008004070706010010204080402010050388
:1027500003060002F800F804070706010080402085
:102760001020408005070706000070881020200018
:1027700020050707060000708898A8B0807005073C
:102780000706000020508888F8888805070706009B
:1027900000F04848704848F00507070600007088B8
:1027A0008080808870050707060000F04848484888
:1027B00048F0050707060000F88080F08080F805E3
:1027C0000707060000F88080F08080800507070674
:1027D00000007088808098887005070706000088D0
:1027E0008888F8888888030707060100E040404091
:1027F0004040E005070706000038101010109060F8
:102800000507070600008890A0C0A090880507076C
:10281000060000808080808080F8050707060000A1
:102820008888D8A88888880507070600008888C88F
:10283000A898888805070706000070888888888817
:1028400070050707060000F08888F0808080050882
:10285000080600FF7088888888A8700805070706A2
:102860000000F08888F0A090880507070600007037
:10287000888070088870050707060000F82020206F
:10288000202020050707060000888888888888702F
:102890000507070600008888885050502005070764
:1028A000060000888888A8A8D888050707060000C1
:1028B00088885020508888050707060000888850BF
:1028C00020202020050707060000F808102040807F
:1028D000F8030707060100E08080808080E005079C
:1028E0000706000080804020100808030707060143
:1028F00000E02020202020E00503030600042050F3
:10290000880501010600FFF8020202060206804067
:102910000505050600007008788878050707060099
:10292000008080B0C888C8B0050505060000708822
:10293000808870050707060000080868988898686E
:102940000505050600007088F88070050707060079
:1029500000304840F04040400507070600FE7888F8
:1029600088780888700507070600008080B0C8884E
:1029700088880307070601004000C0404040E0048B
:1029800009090601FE100030101010909060050734
:102990000706000080808890E09088030707060102
:1029A00000C04040404040E0050505060000D0A8BA
:1029B000A8A888050505060000B0C8888888050510
:1029C0000506000070888888700507070600FEB0BD
:1029D000C888C8B080800507070600FE68988898F8
:1029E000680808050505060000B0C8808080050558
:1029F0000506000070807008F0050707060000401B
:102A000040F0404048300505050600008888889859
:102A10006805050506000088885050200505050654
:102A200000008888A8A850050505060000885020E9
:102A300050880507070600FE888898680888700592
:102A40000505060000F8102040F8040707060100FD
:102A5000304020C0204030010707060200808080FF
:102A600080808080040707060100C020403040209D
:102A7000C005030306000448A89000000001000000
:102A80000000000100000000000100000000000143
:102A90000000000000010000000000010000000034
:102AA0000001000000000001000000000001000023
:102AB0000000000100000000000100000000000113
:102AC0000000000000010000000000010000000004
:102AD00000010000000000010000000000010000F3
:102AE00000000001000000000001000000000001E3
:102AF00000000000000100000000000100000000D4
:102B000000010000000000010000000000010000C2
:102B100000000001000000000001000000000001B2
:102B200000000000000100000000000100000000A3
:102B30000001000000000001000000000001000092
:102B400000000006000001070706020080008080E8
:102B50008080800507070600FF2078A0A0A07820CD
:102B6000050707060000304840E04048B00505056D
:102B700006000088705070880508080600FF8888E5
:102B80005020F820202001070706020080808000E6
:102B90008080800508080600FF7080E090483808B3
:102BA00070030101060107A00507070600007088F1
:102BB000A8C8A888700406060601017090B05000ED
:102BC000F006050506000024489048240402020689
:102BD0000102F010040101060103F00507070600D9
:102BE000007088E8C8C88870050101060007F8036E
:102BF000030306010440A04005060606000020204D
:102C0000F82020F804050506010360902040F00438
:102C10000505060103E0106010E00202020602064C
:102C200040800506060600FF888888C8B080050732
:102C30000706000078E8E868282828010101060254
:102C400003800202020602FE40800305050601031E
:102C500040C04040E004060606010160909060001C
:102C6000F00605050600009048244890060909066C
:102C700000FF40C04040E40C143C04060909060073
:102C8000FF40C04040E81404081C0509090600FF85
:102C9000C0204020C8182878080507070600002033
:102CA0000020204088700508080600004020708839
:102CB00088F888880508080600001020708888F8C1
:102CC00088880508080600002050708888F88888E1
:102CD00005080806000048B0708888F8888805084C
:102CE000080600005000708888F8888805080806E3
:102CF00000002050708888F88888060707060000C2
:102D00003C50909CF0909C0509090600FE7088805C
:102D100080808870204005080806000040F8808008
:102D2000F08080F805080806000010F88080F08028
:102D300080F805080806000020F88080F08080F800
:102D400005080806000050F88080F08080F803082D
:102D5000080601008040E040404040E003080806CB
:102D600001002040E040404040E003080806010028
:102D700040A0E040404040E0030808060100A000F9
:102D8000E040404040E0050707060000F04848E802
:102D90004848F0050808060000285088C8A8988808
:102DA000880508080600004020708888888870051B
:102DB00008080600001020708888888870050808B8
:102DC0000600002050708888888870050808060072
:102DD0000028507088888888700508080600005010
:102DE00000708888888870050505060000885020D6
:102DF0005088050707060000709898A8C8C8700595
:102E0000080806000040208888888888700508081F
:102E10000600001020888888888870050808060049
:102E20000020500088888888700508080600005037
:102E300000888888888870050808060000102088A7
:102E4000885020202005070706000080F088F080C9
:102E50008080050707060000708890A09088B00564
:102E600008080600004020007008788878050808E7
:102E70000600001020007008788878050808060011
:102E8000002050007008788878050808060000289F
:102E90005000700878887805070706000050007019
:102EA0000878887805080806000020502070087807
:102EB000887806050506000078147C907C050707D5
:102EC0000600FE7088808870204005080806000013
:102ED0004020007088F88070050808060000102067
:102EE000007088F880700508080600002050007007
:102EF00088F8807005070706000050007088F88089
:102F000070030808060100804000C0404040E00314
:102F10000808060100408000C0404040E003080867
:102F200006010040A000C0404040E0060A0A06003A
:102F3000FEA4A800FC8480808084FC060A0A0600A7
:102F4000FE549400FC8404040484FC050808060074
:102F500000285000B0C8888888050808060000408E
:102F600020007088888870040A0A0602FE304080BB
:102F700090909090909090040A0A0600FEC0201055
:102F800090909090909090060707060001448C8CDA
:102F90008480403C06070706000188C4C4840408F6
:102FA000F00505050600012000F8002005080806C8
:102FB000000040F0C88888987810050808060000CE
:102FC000E0F88888888888F8050505060001203023
:102FD000F830200508080600002070F82020202086
:102FE000E00509090600FF2070A8A8B888885020CD
:102FF0000509090600FFE080C0B0A8A83028280510
:1030000009090600FFF8A88888888888A8F8050AB2
:103010000A0600FE205050505088A8A8887001056C
:103020000800FF060121023520FFFF07FF06FF0908
:103030000050221656808080800080153353A0A057
:10304000A00257575050F850F85050025757207070
:10305000A07028702013355580A040A0200247574B
:1030600040A0A040A0A05025135380808012265677
:103070004080808080401226568040404040800240
:1030800045559060F060900255552020F8202011A1
:103090003353604080044151F011335340E040020B
:1030A000465610102040808012365640A0A0A0A0A6
:1030B0004012365640C0404040E0024656609010F4
:1030C0006080F0024656F020601090600246562064
:1030D00060A0F02020024656F080E010906002468A
:1030E000566080E0909060024656F01020204040EC
:1030F00002465660906090906002465660909070D4
:103100001060122555C0C000C0C011365660600066
:10311000604080123656204080804020034353F0A8
:1031200000F012365680402020408012365640A0D3
:1031300020400040015858304898A8A890403002DC
:103140004656609090F09090024656E090E0909045
:10315000E0024656609080809060024656E0909073
:103160009090E0024656F080E08080F0024656F0F3
:1031700080E0808080024656609080B09060024679
:10318000569090F0909090123656E040404040E0CB
:1031900002465670202020A04002465690A0C0A0B3
:1031A000A0900246568080808080F002465690F0C3
:1031B000F090909002465690D0F0B0B090024656F3
:1031C000609090909060024656E09090E080800180
:1031D0004757609090D0B06010024656E09090E063
:1031E0009090024656609040209060123656E04023
:1031F0004040404002465690909090906002465663
:10320000909090906060024656909090F0F09002FE
:1032100046569090606090900256568888502020C4
:1032200020024656F010204080F0123656E0808092
:103230008080E0024656808040201010123656E012
:1032400020202020E016325240A0014151F01622E9
:10325000528040024454709090700246568080E044
:103260009090E012345460808060024656101070D6
:1032700090907002445460B0C060024656205040A6
:10328000E0404001455560907010600246568080D5
:10329000E09090901236564000C04040E011375701
:1032A0002000202020A040024656808090E0909090
:1032B000123656C040404040E0025454D0A8A8A85E
:1032C000024454E090909002445460909060014514
:1032D00055E090E0808001455570907010100244D8
:1032E00054A0D0808012345460C020C002465640A2
:1032F00040E040502002445490909070123454A00A
:10330000A0A04002545488A8A85002445490606081
:10331000900145559090709060024454F02040F028
:10332000024757304020C02040302216568080800F
:10333000808080024757C02040304020C006425263
:1033400050A0FFFFFFFFFFFFFFFFFFFFFFFFFFFF9B
:10335000FFFFFFFFFFFFFFFFFFFFFFFFFFFFFFFF7D
:10336000FFFFFF09005022165680008080808001F8
:1033700046562070A0A070200246562050E04050D3
:10338000A002555588705070880256568850F82013
:10339000F820221757808080008080800247577075
:1033A00080E0907010E0173151A002565670A8C806
:1033B000C8A87014355560A06000E003435350A0C6
:1033C00050123353E02020143151E002565670E879
:1033D000D8E8D870173151E015335340A04012356A
:1033E0005540E04000E014355540A02040E0143541
:1033F00055C020C020C016225240800145559090F3
:1034000090E08002565678E8E86828282411518018
:10341000112252408014355540C04040E0143555CB
:1034200040A04000E0034353A050A00247578080D3
:1034300080A060F0200247578080A0D0102070024A
:10344000475780408060A0F02012365640004080F0
:10345000A04002475740206090F0909002475720CC
:10346000406090F0909002475760906090F090908C
:1034700002475750A06090F090900247579000602C
:1034800090F0909002475760906090F090900246C4
:103490005670A0A0F0A0B001475760908080906067
:1034A000400247574020F080E080F002475720401C
:1034B000F080E080F00247576090F080E080F002FA
:1034C00047579000F080E080F01237578040E0408E
:1034D0004040E01237572040E0404040E01237576C
:1034E00040A0E0404040E0123757A000E04040409C
:1034F000E00256567048E848487002475750A0907E
:10350000D0B0909002475740206090909060024762
:103510005720406090909060024757609060909074
:10352000906002475750A06090909060024757907B
:10353000006090909060123353A040A002465670F5
:10354000B0B0D0D0E00247574020909090906002F9
:10355000475720409090909060024757609090901D
:10356000909060024757900090909090600257575B
:103570001020885020202002465680E09090E08065
:103580000246566090A0A090A002475740200070CD
:1035900090907002475720400070909070024757FB
:1035A0002050007090907002475750A0007090908B
:1035B00070024656500070909070024757609060BD
:1035C00070909070025454F068B078113555608056
:1035D00080604002475740200060B0C060024757FB
:1035E00020400060B0C06002475760900060B0C0EB
:1035F00060024656500060B0C060123757804000ED
:10360000C04040E0123757204000C04040E0123731
:103610005740A000C04040E0123656A000C04040D5
:10362000E0024757A040A01070906002475750A09A
:1036300000E0909090024757402000609090600218
:1036400047572040006090906002475760900060AC
:1036500090906002475750A00060909060024656DC
:103660009000609090601235554000E000400244A8
:103670005470B0D0E0024757402000909090700204
:1036800047572040009090907002475760900090FC
:10369000909070024656900090909070014858208B
:1036A000400090907090600147578080E090E080EB
:1036B000800147579000909070906000091200FCC4
:1036C0000A01E803D720FFFD0EFD0BFD00000009F5
:1036D000000E010B0B090400808080808080800038
:1036E00000808004040409030790909090080A0A5F
:1036F000090000242424FF2424FF242424070B0B86
:103700000901FF107C929050381412927C10070A25
:103710000A09010042A4A4481010244A4A84070A56
:103720000A0901006090909060629488946201049C
:103730000409040780808080030C0C0903FF2040EB
:1037400040808080808080404020030C0C0903FF73
:10375000804040202020202020404080070707098B
:103760000103109254385492100707070901011001
:103770001010FE1010100204040904FEC0C04080A6
:10378000070101090104FE020202090400C0C0078A
:103790000A0A0901000204040810102040408007B2
:1037A0000A0A0901003844828282828282443807F0
:1037B0000A0A090100103050901010101010FE0776
:1037C0000A0A090100384482020408102040FE075A
:1037D0000A0A090100FE020408180402028478079C
:1037E0000A0A090100040C14244484FE040404079A
:1037F0000A0A090100FE808080F80402028478072A
:103800000A0A0901003C408080B8C482824438071B
:103810000A0A090100FE020404080810101010072B
:103820000A0A090100384482443844828244380735
:103830000A0A09010038448282463A0202047802E8
:103840000707090400C0C0000000C0C00209090940
:1038500004FEC0C0000000C0C04080050909090284
:1038600000081020408040201008070404090102CD
:10387000FE0000FE05090909020080402010081022
:10388000204080070A0A0901003844820204081017
:10389000100010070A0A09010038449AAAAAAAAA25
:1038A0009C403C070A0A09010010282828447C444F
:1038B000828282070A0A090100F8848284F88482DD
:1038C0008284F8070A0A0901003C428080808080D7
:1038D00080423C070A0A090100F8848282828282BF
:1038E0008284F8070A0A090100FE808080F880803F
:1038F0008080FE070A0A090100FE808080F880802F
:10390000808080070A0A09010038448280808E8204
:10391000824438070A0A09010082828282FE82827A
:10392000828282050A0A090200F820202020202035
:103930002020F8070A0A0901003E080808080808BC
:10394000888870070A0A09010082848890A0D088BC
:10395000848282070A0A090100808080808080803A
:103960008080FE070A0A0901008282C6AA9282822A
:10397000828282070A0A0901008282C2A2928A8692
:10398000828282070A0A0901007C82828282828204
:1039900082827C070A0A090100F884828284F88006
:1039A000808080080B0B0901FF384482828282826A
:1039B0008A443A01070A0A090100F884828284F8DD
:1039C00090888482070A0A0901007C8280807C0238
:1039D0000202827C070A0A090100FE101010101072
:1039E00010101010070A0A09010082828282828266
:1039F00082824438070A0A090100828282444444D0
:103A000028282810070A0A090100828282829292DD
:103A10009292AA44070A0A090100828244281010DF
:103A200028448282070A0A09010082824428101071
:103A300010101010070A0A090100FE0204081020E5
:103A4000408080FE040C0C0903FFF08080808080A1
:103A50008080808080F0070A0A09010080404020B1
:103A6000101008040402040C0C0902FFF0101010DE
:103A700010101010101010F007040409010610288F
:103A800044820801010900FFFF03030309030A80C0
:103A900040200707070901007C02027E82867A0720
:103AA0000A0A090100808080BCC2828282C2BC07EF
:103AB00007070901007C82808080827C070A0A094E
:103AC00001000202027A86828282867A070707094B
:103AD00001007C8282FE80827C070A0A0901001CA8
:103AE00022222020F820202020070A0A0901FD7A3E
:103AF00084848478807C82827C070A0A09010080A1
:103B00008080BCC28282828282050A0A0902006029
:103B10000000E02020202020F8050D0D0902FD18EE
:103B2000000038080808080808888870070A0A0989
:103B30000100808080848890B0C88482050A0A09C8
:103B40000200E02020202020202020F8070707097D
:103B50000100EC929292929282070707090100BC41
:103B6000C282828282820707070901007C828282E8
:103B700082827C070A0A0901FDB8C4828282C4B825
:103B8000808080070A0A0901FD3A46828282463A0D
:103B90000202020707070901009C624240404040C0
:103BA0000707070901007C82807C02827C070909E3
:103BB0000901002020FC20202020221C07070709E3
:103BC00001008282828282867A07070709010082C9
:103BD0008244442828100707070901008282929234
:103BE00092AA44070707090100824428102844824A
:103BF000070A0A0901FD4242242424181810906083
:103C0000070707090100FE0408102040FE060B0B01
:103C10000902001C20202020C0202020201C010C94
:103C20000C0904FF8080808080808080808080807C
:103C3000060B0B090100E0101010100C10101010F2
:103C4000E007030309010762928CFFFFFFFFFFFFFC
:103C5000FFFFFFFFFFFFFFFFFFFFFFFFFFFFFFFF74
:103C6000FFFFFFFFFFFFFFFFFFFFFF000000090056
:103C70000E010B0B09040080800000808080808092
:103C8000808006080809010008789490A0A4784074
:103C9000070A0A0901001C222020F8202060A25CEB
:103CA000070606090103827C44447C82070A0A094C
:103CB0000100828244287C107C101010010B0B093B
:103CC00004FF8080808080008080808080040B0BD7
:103CD0000902FF60908060909090601090600302F5
:103CE0000209030BA0A00809090900013C4299A59B
:103CF000A1A599423C0507070901036090709078DF
:103D000000F807080809010112244890904824127D
:103D1000060404090102FC0404040501010902046B
:103D2000F80809090900013C42B9A5BDA9A5423C12
:103D3000060101090109FC040404090306609090CE
:103D400060070909090101101010FE10101000FE93
:103D50000406060901046090106080F0040606095C
:103D6000010460902010906003030309030A2040BF
:103D7000800709090901FE8282828282C6BA808098
:103D8000070A0A0901007E8A8A8A7A0A0A0A0A0A46
:103D9000020202090404C0C00403030902FD2090CA
:103DA0006003060609010440C0404040E0050606E5
:103DB0000901047088887000F8070808090101905B
:103DC00048241212244890070A0A09010040C04002
:103DD0004042E60A121A06070A0A09010040C040DA
:103DE000404CF2020C101E070A0A090100609020E4
:103DF0001092660A121A06070A0A0901001000103A
:103E00001020408082827C070E0E090100201008DD
:103E10000010282828447C44828282070E0E090163
:103E2000000810200010282828447C448282820741
:103E30000E0E0901001028440010282828447C4454
:103E4000828282070D0D09010034580010282828AD
:103E5000447C44828282070D0D090100282800104D
:103E6000282828447C44828282070E0E0901001013
:103E700028281010282828447C44828282070A0AB5
:103E80000901001E2828284E784888888E070D0DC5
:103E90000901FD3C42808080808080423C082418DB
:103EA000070E0E09010020100800FE808080F880B7
:103EB000808080FE070E0E09010008102000FE80A1
:103EC0008080F880808080FE070E0E090100102897
:103ED0004400FE808080F880808080FE070D0D0900
:103EE0000100282800FE808080F880808080FE0508
:103EF0000E0E09020040201000F820202020202073
:103F00002020F8050E0E09020010204000F82020A5
:103F1000202020202020F8050E0E090200205088C5
:103F200000F82020202020202020F8050D0D090277
:103F300000505000F82020202020202020F8070AE0
:103F40000A09010078444242F24242424478070D95
:103F50000D0901003458008282C2A2928A868282B0
:103F600082070E0E090100201008007C82828282E6
:103F7000828282827C070E0E090100081020007CDC
:103F800082828282828282827C070E0E0901001068
:103F90002844007C82828282828282827C070D0D8C
:103FA0000901003458007C82828282828282827C73
:103FB000070D0D0901002828007C828282828282FE
:103FC00082827C0707070901018244281028448265
:103FD000070C0C0901FF027C868A8A9292A2A2C277
:103FE0007C80070E0E090100201008008282828268
:103FF000828282824438070E0E09010008102000D8
:1040000082828282828282824438070E0E090100F7
:104010001028440082828282828282824438070D84
:104020000D090100282800828282828282828244D5
:1040300038070E0E09010008102000828244281063
:104040001010101010070A0A0901008080FC8282FB
:1040500082FC808080060A0A09010038444448D066
:104060004844444458070B0B090100201008007C09
:1040700002027E82867A070B0B09010008102000DD
:104080007C02027E82867A070B0B0901001028440D
:10409000007C02027E82867A070A0A0901003458EF
:1040A000007C02027E82867A070A0A09010028281B
:1040B000007C02027E82867A070C0C09010010281F
:1040C0002810007C02027E82867A07070709010019
:1040D0006C12127E90926C070A0A0901FD7C8280A4
:1040E0008080827C104830070B0B090100201008EB
:1040F000007C8282FE80827C070B0B090100081085
:1041000020007C8282FE80827C070B0B090100105C
:104110002844007C8282FE80827C070A0A09010012
:104120002828007C8282FE80827C050C0C0902001B
:104130008040200000E02020202020F8050C0C0901
:1041400002001020400000E02020202020F8050C74
:104150000C0902002050880000E02020202020F8D8
:10416000050B0B09020050500000E0202020202009
:10417000F8070B0B090100483050083C448282824A
:104180004438070A0A090100345800BCC2828282FE
:104190008282070B0B090100201008007C828282BA
:1041A00082827C070B0B090100081020007C8282B0
:1041B0008282827C070B0B090100102844007C825C
:1041C000828282827C070A0A0901003458007C82BC
:1041D000828282827C070A0A0901002828007C82E8
:1041E000828282827C07090909010010381000FED2
:1041F000001038100709090901FF027C8A8A92A27F
:10420000A27C80070B0B09010040201000828282F3
:104210008282867A070B0B09010008102000828237
:10422000828282867A070B0B0901001028440082E3
:1042300082828282867A070A0A090100282800827F
:1042400082828282867A070E0E0901FD0408100020
:1042500042422424241818109060070B0B0901FE19
:104260008080B8C4828282C4B88080070D0D0901A5
:10427000FD242400424224242418181090600000D9
:104280002100240027002A002D0030003300010106
:104290000000040107010A01000022002500280097
:1042A0002B002E003100340002010000050108013E
:1042B0000B01000020002300260029002C002F0005
:1042C0003200000100000301060109010505050592
:1042D000070508080808020202020A0A080804047E
:1042E00004040101010101010101030303030303AC
:1042F0000303040707070C0C0C0C0C0C0C0C02023B
:10430000020206060606060606060B0B0B0B0B0B37
:104310000B0B0102102020080810204010204080C4
:104320000201020108040201010204081020408079
:104330008040201008040201800402018040201007
:104340000804020108040201010204081020408050
:1043500001020408102040800000090A02080B0C2A
:104360000D0706030401000000000000000000002B
:10437000000000000000000000000000000000003D
:104380000000000011100F000000000000000000FD
:104390000000000000000000000000000000494E86
:1043A00046494E4954594E414ECDCCCC3D0AD723B7
:1043B0003C17B7D13877CC2B329595E6241FB14FF7
:1043C0000A000020410000C84200401C4620BCBE3C
:1043D0004CCA1B0E5AAEC59D7400223C3A3EE740C3
:1043E00083D219DBE24011241FBECFEFD1E2DEBF42
:1043F000CDBF00E00CBF14E0A0E0B2E0E2E7F7EDD3
:1044000001E00BBF02C007900D92A237B107D9F7A8
:104410001BBE14E1A2E7B4E001C01D92AC38B107A5
:10442000E1F713E4C4EED3E404C02297FE010E9436
:104430005FEBCA3DD107C9F70E94F0E50C94ADEBE4
:104440000C940000A0E0B0E0E8E2F2E20C947CEB17
:10445000EC015B016115710519F0FB01918380830B
:10446000F9908F2D90E00E9463EB892BC9F7FDE254
:10447000FF1621F4F990EE24E39405C02BE2F21626
:1044800009F4F990EE248E0101501040C8016EE944
:1044900073E443E050E072D2892BF9F48E010E5F91
:1044A0001F4FC80161EA73E445E050E067D2892BF1
:1044B00019F48E01095F1F4FA114B10419F0F50121
:1044C00011830083E0FC04C070E090E080E813C03A
:1044D00070E090E080E86FEF07C1C80166EA73E41E
:1044E00043E050E04BD2892B69F4A114B10429F4C4
:1044F00070E090E080EC6FE7F7C02296F501D18381
:10450000C083F6CF8824992440E050E060E070E05A
:10451000EF2DE053EA30A0F5F2E0EF2A8E2D90E087
:104520009C0128703070E2FE06C0232B79F50894B8
:10453000811C911C2BC0232B19F008948108910831
:10454000DB01CA0112E0880F991FAA1FBB1F1A9531
:10455000D1F7480F591F6A1F7B1F440F551F661F55
:10456000771F4E0F511D611D711D483929E95207F2
:1045700029E9620729E1720748F084E0E82A06C0C9
:10458000EE3F31F4E3FC39C098E0E92AF990C0CF5E
:10459000E53311F0E53189F529912D3219F4E0E187
:1045A000EE2A05C02B3219F081E090E003C029917A
:1045B00082E090E0E22FE053EA3018F0C81BD90BFC
:1045C0001CC020E030E0FCE020383F075CF4C9016B
:1045D000880F991F880F991F280F391F220F331F2B
:1045E0002E0F311DE991E053EA3068F3E4FE03C079
:1045F000309521953F4F820E931ECE2CDD24E1FE97
:1046000007C0A114B10421F02197F501D183C08323
:10461000CB01BA010E94C8E77B018C01F3E0CF22F5
:10462000DD2423E0C216D10421F417FB109517F9FD
:10463000109557016801C801B70120E030E040E063
:1046400050E00E9428E7882309F44AC097FE0DC075
:104650002DEBE22E23E4F22E909481949108939412
:10466000C0E2D0E000E010E012C095EDE92E93E446
:10467000F92EF6CFF7012591359145915491C60158
:10468000B5010E9408EA5B016C018C1A9D0A8C1628
:104690009D0684F7D595C7950F5F1F4F063011050E
:1046A00029F08CEF9FEFE80EF91EF1CFC501D6017E
:1046B0007C018D018C2D880F8D2D881F8F3F51F02F
:1046C000C601B50120E030E040E050E00E9428E75C
:1046D000882331F482E290E090938B1480938A14C3
:1046E0007E2D9F2D802F612F272F392F482F562F5A
:1046F000B901CA01CDB7DEB7ECE00C9498EB2F926C
:104700003F925F926F927F928F929F92AF92BF92F1
:10471000CF92DF92EF92FF920F931F93CF93DF938D
:104720008C011B01EA016115710519F0FB019183F0
:104730008083209749F0CE010297839728F020E0EC
:1047400030E040E050E0F6C0F801A1908F018A2DE2
:1047500090E00E9463EB892BB9F7FDE2AF1631F4CC
:10476000F801A1908F015524539407C0FBE2AF16C6
:1047700019F4F801A1908F015524209719F0C03148
:10478000D105C1F4F0E3AF1679F4F80180818837E0
:1047900011F0883549F4F801A1800E5F1F4FF2E057
:1047A0005F2AC0E1D0E006C0209721F480E3A8167C
:1047B000E9F427C0C830D10531F1C930D10524F45E
:1047C000C230D10531F50CC0CA30D10589F0C031F5
:1047D000D105F9F4C12CD12CE12CB8E0FB2E28C076
:1047E000C12CD12CE12CA0E4FA2E22C0CAE0D0E0EA
:1047F000FCECCF2EFCECDF2EFCECEF2EFCE0FF2ED1
:1048000017C0C8E0D0E0C12CD12CE12CE0E1FE2E95
:104810000FC09E01442737FD4095542F60E070E0A3
:1048200080E090E80E9420EBC901DA016C017D0173
:1048300020E030E040E050E060E03E01882477FC7A
:104840008094982C70EDB72EBA0CE9E0EB1570F45B
:104850008A2D81548A3118F499ECB92E06C08A2D1C
:1048600081568A3150F589EAB82EBA0C8B2D90E02A
:104870008C179D0714F56F3FE1F0C216D306E406CE
:10488000F506B0F0CA01B901A40193010E94DAEA69
:104890009B01AC012B0D311D411D511D2130F0E05C
:1048A0003F07F0E04F07F0E85F0710F461E001C058
:1048B0006FEFF801A1908F01C5CF2114310481F071
:1048C000662331F001501040F1011183008308C0CC
:1048D00051FE1AC002501040F1011183008314C030
:1048E00067FF12C050FC05C02FEF3FEF4FEF5FE7AF
:1048F00004C020E030E040E050E882E290E0909395
:104900008B1480938A1416C050FE08C050954095B1
:10491000309521953F4F4F4F5F4F0CC057FF0AC056
:1049200082E290E090938B1480938A142FEF3FEFF4
:104930004FEF5FE7B901CA01DF91CF911F910F914E
:10494000FF90EF90DF90CF90BF90AF909F908F90AF
:104950007F906F905F903F902F900895FB01DC0156
:1049600005900D920020E1F70895FC0105900020CC
:10497000E9F7809590958E0F9F1F0895FB01DC014C
:104980004150504088F08D9181341CF08B350CF4EF
:10499000805E659161341CF06B350CF4605E861BA3
:1049A000611171F3990B0895881BFCCFFB01DC01A9
:1049B0004150504048F005900D920020C9F701C0C9
:1049C0001D9241505040E0F70895FB015591552349
:1049D000A9F0BF01DC014D9145174111E1F759F4F0
:1049E000CD010590002049F04D9140154111C9F3CA
:1049F000FB014111EFCF81E090E001970895FB01A9
:104A0000DC0104C08D910190801921F44150504087
:104A1000C8F7881B990B0895FB01DC0102C00190C7
:104A20000D9241505040D8F70895FB01DC010D90E4
:104A30000020E9F7119701900D920020E1F7089509
:104A4000FC018191861721F08823D9F799270895D1
:104A50003197CF010895FB01DC0101900D920020F8
:104A6000E1F70895FB01DC014150504030F08D9199
:104A70000190801919F40020B9F7881B990B08954B
:104A8000FB01DC014150504048F001900D920020A4
:104A9000C9F701C01D9241505040E0F70895AEE0C3
:104AA000B0E0E5E5F5E20C9484EB0E891F898EE019
:104AB0008C831A8309838FEF9FE79E838D839E01EA
:104AC000265E3F4FCE010196688D798DA9010AD0EF
:104AD0002F813885020F131FF80110822E96E4E013
:104AE0000C94A0EBABE0B0E0E8E7F5E20C9476EBD9
:104AF0003C012B015A01FC0117821682838181FD42
:104B000003C06FEF7FEFB9C19AE0892E1E010894B0
:104B1000211C311CF3012381F20123FD859123FF28
:104B200081912F01882309F4A5C1853239F423FD31
:104B3000859123FF81912F01853221F490E0B3010B
:104B4000B7D1E8CF982FFF24EE249924FFE1FF1579
:104B5000D0F09B3269F09C3228F4903259F09332B5
:104B600091F40EC09D3249F0903369F441E024C0C5
:104B700052E0F52A84E0F82A28C098E0F92A25C0F6
:104B8000E0E1FE2A22C0F7FC29C0892F80538A3039
:104B900070F4F6FE05C0989C902C1124980E15C058
:104BA000E89CE02C1124E80EF0E2FF2A0EC09E32B1
:104BB00029F4F6FC5FC140E4F42A07C09C3619F4DE
:104BC00050E8F52A02C0983649F4F20123FD959188
:104BD00023FF91912F01992309F0B8CF892F855494
:104BE000833018F08052833038F444E050E0A40E53
:104BF000B51E5FE359830FC0933631F0933779F0D8
:104C0000933509F052C01FC0F5018081898342E0CD
:104C100050E0A40EB51E610101E010E011C0F501E5
:104C2000C080D180F6FC03C06FEF7FEF02C0692D1A
:104C300070E042E050E0A40EB51EC6012ED18C01FA
:104C40005FE7F52213C0F501C080D180F6FC03C0F8
:104C50006FEF7FEF02C0692D70E042E050E0A40EDC
:104C6000B51EC6010FD18C0150E8F52AF3FE06C02F
:104C700018C080E290E0B3011BD1EA948E2D90E041
:104C800008171907B0F30DC0F601F7FC8591F7FE80
:104C900081916F0190E0B3010BD1E110EA940150D2
:104CA00010400115110581F7E2C0943611F09936D4
:104CB00061F5F7FE08C0F501208131814281538101
:104CC00084E090E00AC0F501808191819C01442735
:104CD00037FD4095542F82E090E0A80EB91E9FE664
:104CE000F92257FF09C050954095309521953F4FC7
:104CF0004F4F5F4FE0E8FE2ACA01B901A1012AE047
:104D000030E002D1D82ED2183FC0953729F41F2D9C
:104D10001F7E2AE030E01DC01F2D197F9F3661F0F5
:104D2000903720F4983509F0A5C00FC0903739F0BE
:104D3000983709F09FC004C028E030E00AC0106135
:104D400014FD146020E130E004C014FD166020E181
:104D500032E017FF08C0F501608171818281938183
:104D600044E050E008C0F50180819181BC0180E001
:104D700090E042E050E0A40EB51EA101C5D0D82EAF
:104D8000D2188FE7F82EF122F6FE0BC05EEFF52267
:104D9000D91438F4F4FE07C0F2FC05C08FEEF822F7
:104DA00002C01D2D01C0192DF4FE0DC0FE01ED0D38
:104DB000F11D8081803319F499EEF92208C01F5F3C
:104DC000F2FE05C003C08F2D867809F01F5F0F2DFE
:104DD000F3FC13C0F0FE0EC01E1510F09D2C0AC08F
:104DE0009D2C9E0C911A1E2D05C080E290E0B3010F
:104DF0005FD01F5F1E15C8F304C01E1510F4E11A22
:104E000001C0EE2404FF0EC080E390E0B30150D057
:104E100002FF1BC001FD03C088E790E00EC088E5DB
:104E200090E00BC0802F867881F001FF02C08BE2FA
:104E300001C080E2F7FC8DE290E0B30139D005C0FB
:104E400080E390E0B30134D09A94D914C8F3DA9493
:104E5000F101ED0DF11D808190E0B30129D0DD203D
:104E6000B1F705C080E290E0B30122D0EA94EE20D1
:104E7000C9F750CEF30166817781CB012B96E2E131
:104E80000C9492EBFC010590615070400110D8F732
:104E9000809590958E0F9F1F0895FC016150704082
:104EA00001900110D8F7809590958E0F9F1F08955F
:104EB0000F931F93CF93DF938C01EB018B8181FFC5
:104EC0001BC082FF0DC02E813F818C819D812817E0
:104ED000390764F4E881F9810193F983E88306C016
:104EE000E885F985802F1995892B31F48E819F8172
:104EF00001969F838E8302C00FEF1FEFC801DF91E1
:104F0000CF911F910F910895FA01AA27283051F1EE
:104F1000203181F1E8946F936E7F6E5F7F4F8F4FEA
:104F20009F4FAF4FB1E03ED0B4E03CD0670F781F49
:104F3000891F9A1FA11D680F791F8A1F911DA11D2E
:104F40006A0F711D811D911DA11D20D009F4689467
:104F50003F912AE0269F11243019305D3193DEF60F
:104F6000CF010895462F4770405D4193B3E00FD0C5
:104F7000C9F7F6CF462F4F70405D4A3318F0495DB0
:104F800031FD4052419302D0A9F7EACFB4E0A69593
:104F90009795879577956795BA95C9F700976105B5
:104FA000710508959B01AC010A2E0694579547950B
:104FB00037952795BA95C9F7620F731F841F951F00
:104FC000A01D0895FC01128213820895FC018381C3
:104FD000882311F081E082830895FC018281811190
:104FE00012820895CF93DF93DC01FC01EB55FE4F55
:104FF000808191810097C9F1019791838083ED01B0
:10500000CC5ADF4FFD01ED58FF4F8BE10190099223
:105010008150E1F7FD01EE5AFF4FAF58BF4F8D9120
:105020009C911197A157B04091838083FD01ED5869
:10503000FF4F20E030E0AD014B555E4F10C02F5FB9
:105040003F4FEF01DF015F968BE10D900992815098
:10505000E1F7858D968D329791838083B196DA0141
:105060008D919C912817390750F3DF91CF910895C6
:10507000FC018AE494E0918380838781882321F076
:10508000CF0104960C946C7808950F931F93CF93DF
:10509000DF938C010E9432860E940F86C8018253E2
:1050A0009E4F0E946C78F80112828FE291E00E947C
:1050B000255D80918909882301F1109289098091E9
:1050C0004307C82FD0E0CC0FDD1FC453DF4E6881EB
:1050D0007981882777FD8095982F0E94CAE72091D3
:1050E0008E0330918F0340919003509191030E9461
:1050F00036E9181614F419821882DF91CF911F91A6
:105100000F910895CF92DF92EF92FF920F931F932A
:10511000DF93CF93CDB7DEB76F970FB6F894DEBFAE
:105120000FBECDBF8C016B01095A1F4FD8018C9166
:1051300007551040882321F43FE2E32EF12C03C0F1
:1051400020E5E22EF12CE00EF11E8AE494E09A8331
:1051500089831C821B8218861D82B7016C5F7F4F7A
:10516000CE010596A60121E00E94587F882391F583
:10517000EBE3F1E0949108C08091C00085FFFCCF83
:105180009093C600319694919923B1F7E1E4F1E050
:10519000949108C08091C00085FFFCCF9093C60019
:1051A000319694919923B1F709C08091C00085FF91
:1051B000FCCF0894C11CD11C9093C600F6019081CD
:1051C000992399F78091C00085FFFCCF8AE08093F6
:1051D000C6005AC0F801EB55FE4F208131812A30BC
:1051E000310508F040C02F5F3F4F318320832150AD
:1051F0003040F90195E0EE0FFF1F9A95E1F7E21BB1
:10520000F30BED58FF4FE00FF11F13C0AF01415EEC
:105210005F4FBF018BE1DB010D90BD01DA010D9203
:10522000AD018150C1F7929182913296968F858F10
:105230007F9721503040BFEF2E3F3B0739F7D80111
:10524000AD58BF4FF70134968BE101900D9281501C
:10525000E1F70F581F4FF70182819381D8018D9399
:105260009C9301571040D801AC5ABF4FFE013596B0
:105270008BE101900D928150E1F70E5A1F4F8B8107
:105280009C81F80191838083CE010196F1DE6F96B7
:105290000FB6F894DEBF0FBECDBFCF91DF911F9147
:1052A0000F91FF90EF90DF90CF900895EF92FF92D3
:1052B0000F931F938C014EECE42E41E0F42EE80E88
:1052C000F91EC7010E941D78C7010E946C78F80181
:1052D000108211821F910F91FF90EF900895CF924D
:1052E000DF92EF92FF920F931F93CF93DF937C0196
:1052F0006B01DB010D900020E9F78D01015010409A
:10530000061B170BEEECF1E0EE0EFF1ED7011C9210
:10531000E2E3FEEFEE0EFF1ECB016EE470E090DBE9
:10532000EC01009731F4F8013197EC0DFD1D860179
:105330000CC060E270E084DB8C010F5F1F4FCE0178
:105340006AE270E07DDBFC0131978DE081838AE0C9
:1053500082831382C70186539E4FB8010E945180F9
:105360008EEC91E0E80EF91ED7018C91882319F19B
:10537000EBE6F1E0949108C08091C00085FFFCCF7E
:105380009093C600319694919923B1F7E2E7F1E04A
:10539000949108C08091C00085FFFCCF9093C60017
:1053A000319694919923B1F78091C00085FFFCCF8D
:1053B0008AE08093C600DF91CF911F910F91FF90FB
:1053C000EF90DF90CF900895CF93DF93EC018B8126
:1053D000882309F43BC0EAE9F1E0949108C0809188
:1053E000C00085FFFCCF9093C6003196949199231D
:1053F000B1F7CF50DE4F488159816A817B81C15F0F
:10540000D14088E195E02AE030E00E94D33EE8E90F
:10541000F1E0949108C08091C00085FFFCCF90938B
:10542000C600319694919923B1F7C751DE4F488158
:1054300059816A817B8188E195E02AE030E00E9411
:10544000D33E8091C00085FFFCCF12C0E8E8F1E0B8
:10545000949108C08091C00085FFFCCF9093C60056
:10546000319694919923B1F78091C00085FFFCCFCC
:105470008AE08093C600DF91CF9108952F923F92EA
:105480004F925F926F927F928F929F92AF92BF9254
:10549000CF92DF92EF92FF920F931F93DF93CF9300
:1054A000CDB7DEB7AC970FB6F894DEBF0FBECDBF59
:1054B0005C014B01FC018381882309F434C1C501DF
:1054C00082539E4F0E946C78F50112821A8A1D8ABF
:1054D000198A188A8AE494E09F878E876EE4C62E24
:1054E000D12CCA0CDB1C2FE230E0A20EB31EF60159
:1054F000B182A08221ED3FEFA20EB31EF4018081A4
:105500008F3209F08DC0C4016FE270E099DA7C013E
:105510000894E11CF11C3E010894611C711C2601D9
:1055200052E1252E312C2C0E3D1E75C0C7016FE2B5
:1055300070E086DA6C01009709F480C0E816F9067D
:1055400008F07CC08C010E191F09C301B701A80126
:1055500097DA060D171DF8011082F30107C080913C
:10556000C00085FFFCCF31969093C60090819923AF
:10557000B1F78091C00085FFFCCFFAE0F093C60040
:10558000F201608171816115710519F460E070E0CC
:1055900002C06C5F7F4FC101A30121E00E94587FD0
:1055A000882371F5E6EDF1E0949108C08091C00088
:1055B00085FFFCCF9093C600319694919923B1F763
:1055C000FE01319607C08091C00085FFFCCF319667
:1055D0009093C60090819923B1F7E4EDF1E09491A6
:1055E00008C08091C00085FFFCCF9093C600319623
:1055F00094919923B1F78091C00085FFFCCF8DC0B5
:105600002EE030E02C0F3D1FF20131832083760124
:105610000894E11CF11CE114F10409F087CF0BC0E0
:1056200080E590E0A80EB91EF601B182A08220EBC1
:105630003FEFA20EB31ED82C092D02C0DE2C0F2D79
:105640008EE490E0A80EB91EF5018081918122EBD5
:105650003FEFA20EB31E009719F480E090E001C066
:1056600004966D2D702F0E942480882339F1E6EC7A
:10567000F1E0949108C08091C00085FFFCCF909329
:10568000C600319694919923B1F78D2D902F9C01EE
:10569000F90107C08091C00085FFFCCF319690933F
:1056A000C60090819923B1F781EF91E0A80EB91E51
:1056B000F501108211821282138232C0EEEAF1E00B
:1056C000949108C08091C00085FFFCCF9093C600E4
:1056D000319694919923B1F78D2D902F9C01F9016A
:1056E00007C08091C00085FFFCCF31969093C60023
:1056F00090819923B1F7ECEAF1E0949108C0809190
:10570000C00085FFFCCF9093C600319694919923F9
:10571000B1F78091C00085FFFCCF8AE08093C6007E
:10572000CE010E96A5DCAC960FB6F894DEBF0FBE88
:10573000CDBFCF91DF911F910F91FF90EF90DF9040
:10574000CF90BF90AF909F908F907F906F905F9021
:105750004F903F902F9008952F923F924F925F92DB
:105760006F927F928F929F92AF92BF92CF92DF9271
:10577000EF92FF920F931F93DF93CF93CDB7DEB7D6
:10578000AD970FB6F894DEBF0FBECDBF5C014B01E5
:105790004DA7FC018381882309F4E5C1EEEC4E2E70
:1057A000E1E05E2E4A0C5B1CC2010E946C78F501A0
:1057B00012821A8A1D8A198A188A8AE494E09F87BD
:1057C0008E877EE4C72ED12CCA0CDB1C8FE290E0C2
:1057D000A80EB91EF601B182A08281ED9FEFA80E3E
:1057E000B91EF40180818F3209F089C0C4016FE2D3
:1057F00070E026D97C010894E11CF11C3E0108945C
:10580000611C711C160176C0C7016FE270E018D9E7
:105810006C01009709F481C0E816F90608F07DC014
:105820008C010E191F09C301B701A80129D9060D62
:10583000171DF8011082F30107C08091C00085FF99
:10584000FCCF31969093C60090819923B1F7809157
:10585000C00085FFFCCFFAE0F093C600F101608143
:1058600071816115710519F460E070E002C06C5F30
:105870007F4FCE014296A30121E00E94587F8823EA
:1058800071F5EEE4F2E0949108C08091C00085FFCC
:10589000FCCF9093C600319694919923B1F7FE0105
:1058A000319607C08091C00085FFFCCF3196909360
:1058B000C60090819923B1F7ECE4F2E0949108C01E
:1058C0008091C00085FFFCCF9093C60031969491E3
:1058D0009923B1F78091C00085FFFCCF15C18EE000
:1058E00090E08C0F9D1FF1019183808376010894D5
:1058F000E11CF11CE114F10409F086CF0BC0E0E5D6
:10590000F0E0AE0EBF1EF601B182A08280EB9FEFE9
:10591000A80EB91E082DF92C01C00E2DF501E25B71
:10592000FF4F9DA5992309F4ADC060817181611578
:10593000710519F460E070E002C06C5F7F4FC20136
:10594000402F5F2D21E00E94587F882309F46AC010
:10595000EFEDF1E0AE0EBF1EF50140815181628195
:1059600073818AE090E0A80EB91EF501408351834F
:105970006283738387E19EEFA80EB91EEEE3F2E027
:10598000949108C08091C00085FFFCCF9093C60021
:10599000319694919923B1F7802F9F2D9C01F901A5
:1059A00007C08091C00085FFFCCF31969093C60060
:1059B00090819923B1F7E6E3F2E0949108C08091D9
:1059C000C00085FFFCCF9093C60031969491992337
:1059D000B1F788E195E02AE030E00E94D33E809163
:1059E000C00085FFFCCF8AE08093C600E1EFF1E0C4
:1059F000AE0EBF1EF5011082118212821382E8E200
:105A0000F2E0949108C08091C00085FFFCCF909394
:105A1000C600319694919923B1F78091C00085FF1B
:105A2000FCCF97C0E4E1F2E0949108C08091C000FF
:105A300085FFFCCF9093C600319694919923B1F7DE
:105A4000802F9F2D9C01F90107C08091C00085FF28
:105A5000FCCF31969093C60090819923B1F7E2E193
:105A6000F2E0949108C08091C00085FFFCCF909334
:105A7000C600319694919923B1F78091C00085FFBB
:105A8000FCCF42C0608171816115710519F460E03D
:105A900070E002C06C5F7F4FC201402F5F2D26E592
:105AA0000E94587F882309F033C0EEEFF1E0949113
:105AB00008C08091C00085FFFCCF9093C60031964E
:105AC00094919923B1F7802F9F2D9C01F90107C074
:105AD0008091C00085FFFCCF31969093C6009081E5
