:100000000C94D5090C94020A0C94020A0C94020A6E
:100010000C94020A0C94020A0C94020A0C94020A30
:100020000C94020A0C94020A0C94020A0C94020A20
:100030000C94020A0C94020A0C94020A0C94020A10
:100040000C94020A0C94EE740C94020A0C94020AAA
:100050000C94020A0C94020A0C94737E0C94808E09
:100060000C94020A0C948A920C94DE930C94020A6B
:100070000C94020A0C94020A0C94020A0C94020AD0
:100080000C94020A0C94020A0C94020A0C94020AC0
:100090000C94CA920C941D940C94020A0C94EB8C50
:1000A0000C94020A0C94020A0C94020A0C94020AA0
:1000B0000C94020A0C94020A0C94020A0C94020A90
:1000C0000C94020A0C94020A0C94020A0C940A93EF
:1000D0000C945C940C94020A0C944A930C949B9498
:1000E0000C94020A084AD73B3BCE016E84BCBFFD8C
:1000F000C12F3D6C74319ABD56833DDA3D00C77FF8
:1001000011BED9E4BB4C3E916BAAAABE0000008090
:100110003F05A84CCDB2D44EB93836A9020C50B91F
:10012000918688083CA6AAAA2ABE000000803F4DFE
:10013000383420582059205A2045006563686F3AAA
:100140000043616E6E6F7420656E74657220737506
:10015000626469723A20004D3234004D32332025FA
:1001600073006175746F25692E67004572726F7236
:100170003A006572726F722077726974696E6720D7
:10018000746F2066696C65004E6F74205344207054
:1001900072696E74696E67002F0053442070726933
:1001A0006E74696E67206279746520002E00446564
:1001B0006C6574696F6E206661696C65642C20469D
:1001C000696C653A200046696C652064656C6574ED
:1001D00065643A002E006F70656E206661696C651B
:1001E000642C2046696C653A200057726974696E08
:1001F0006720746F2066696C653A20002E006F706E
:10020000656E206661696C65642C2046696C653A90
:1002100020002E006F70656E206661696C65642C2D
:100220002046696C653A200046696C652073656CF0
:100230006563746564002053697A653A20004669F5
:100240006C65206F70656E65643A20002E006F70DB
:10025000656E206661696C65642C2046696C653A40
:10026000200053442063617264206F6B006F7065DF
:100270006E526F6F74206661696C656400766F6C96
:10028000756D652E696E6974206661696C656400C0
:10029000534420696E6974206661696C0065636807
:1002A0006F3A0048617264636F64656420446566F8
:1002B00061756C742053657474696E6773204C6F3C
:1002C000616465640053746F72656420736574744F
:1002D000696E677320726574726965766564005330
:1002E000657474696E67732053746F72656400651A
:1002F00063686F3A004572726F723A005072696EAD
:100300007465722073746F70706564206475652005
:10031000746F206572726F72732E20466978207434
:100320006865206572726F7220616E6420757365F6
:10033000204D39393920746F20726573746172747D
:100340002E202854656D7065726174757265206920
:10035000732072657365742E205365742069742050
:1003600061667465722072657374617274696E6718
:1003700029005072696E7465722068616C746564DE
:100380002E206B696C6C28292063616C6C6564217C
:10039000006F6B00526573656E643A200022005551
:1003A0006E6B6E6F776E20636F6D6D616E643A2059
:1003B00022007A5F6D61783A20007A5F6D696E3A4B
:1003C0002000795F6D61783A2000795F6D696E3A3F
:1003D0002000785F6D61783A2000785F6D696E3A31
:1003E00020005A3A00593A0020436F756E74205825
:1003F0003A2000453A005A3A00593A00583A004625
:1004000049524D574152455F4E414D453A4D6172FB
:100410006C696E2056313B20537072696E74657240
:100420002F6772626C206D617368757020666F72E1
:100430002067656E36204649524D574152455F55FB
:10044000524C3A687474703A2F2F7777772E6D6517
:100450006E64656C2D70617274732E636F6D2050C5
:10046000524F544F434F4C5F56455253494F4E3AAB
:10047000312E30204D414348494E455F5459504537
:100480003A42434E33442B2045585452554445522A
:100490005F434F554E543A310A0020423A002045FE
:1004A0003A00543A0020573A0020453A00543A00A6
:1004B0002042403A0020403A00202F0020423A00DB
:1004C000202F006F6B20543A002569206D696E2C37
:1004D0002025692073656300456E642066696C653C
:1004E000206C69737400426567696E2066696C658B
:1004F000206C697374000080724300005243000056
:1005000048430000A0400000A0400000803F01FFE1
:10051000FF008072430000000000000000000000A7
:100520000000000000000000000080724300005244
:100530004300004843256920686F75727320256960
:10054000206D696E7574657300446F6E65207072FE
:10055000696E74696E672066696C65005072696EB9
:100560007465722073746F707065642064756520A3
:10057000746F206572726F72732E204669782074D2
:100580006865206572726F7220616E642075736594
:10059000204D39393920746F20726573746172741B
:1005A0002E202854656D70657261747572652069BE
:1005B000732072657365742E2053657420697420EE
:1005C00061667465722072657374617274696E67B6
:1005D00029006F6B004E6F204C696E65204E756D63
:1005E000626572207769746820636865636B7375F0
:1005F0006D2C204C617374204C696E653A20004E5E
:100600006F20436865636B73756D2077697468202C
:100610006C696E65206E756D6265722C204C61731D
:1006200074204C696E653A2000636865636B73756E
:100630006D206D69736D617463682C204C617374F7
:10064000204C696E653A20004C696E65204E756DD0
:10065000626572206973206E6F74204C6173742020
:100660004C696E65204E756D6265722B312C204C85
:10067000617374204C696E653A20004D3131300051
:100680004D383420582059205A204500542030003D
:10069000542031004D383420582059205A2045002C
:1006A0004D3234004D323320257300473238004438
:1006B0006F6E6520736176696E672066696C652E62
:1006C000006F6B004D3239002200656E71756569EF
:1006D0006E672022002200656E717565696E672065
:1006E00022006563686F3A0020746F6F206C6F6E34
:1006F0006720657874727573696F6E2070726576A5
:10070000656E7465640020636F6C64206578747234
:100710007573696F6E2070726576656E74656400BE
:100720007C3C3E5E2B3D3F2F5B5D3B2C2A225C00D8
:1007300045313A200045303A20005A3A2000593AD3
:100740002000583A20004D53312C4D53322050692F
:100750006E730A0024F404D9201BC40C5C0E9804A8
:10076000C4095F0265077101F405F900FB04B300D9
:1007700048048700C103690058035500030345007E
:10078000BE023A008402310053022A0029022500E9
:1007900004022000E4011C00C8011900AF01170089
:1007A0009801140084011300710110006101100010
:1007B00051010E0043010D0036010B002B010B000F
:1007C00020010B00150109000C01090003010800BC
:1007D000FB000800F3000800EB000700E40006003F
:1007E000DE000600D8000600D2000600CC0005009E
:1007F000C7000500C2000500BD000400B9000400E8
:10080000B5000400B1000400AD000400A90004001C
:10081000A5000300A20003009F0004009B0003004A
:10082000980003009500020093000300900003006D
:100830008D0002008B000300880002008600020089
:1008400084000300810002007F0002007D0002009E
:100850007B000200790002007700010076000200B0
:100860007400020072000100710002006F000200BB
:100870006D0001006C0002006A00010069000200C6
:1008800067000100660001006500010064000200CD
:100890006200010061000100600001005F000200D1
:1008A0005D0001005C0001005B0001005A000100D6
:1008B00059000100580001005700010056000100D6
:1008C00055000100540001005300000053000100D6
:1008D0005200010051000100500001004F000100D2
:1008E0004E0000004E0001004D0001004C000100D0
:1008F0004B0000004B0001004A00010049000100CC
:1009000048000000480001004700010046000000C8
:1009100046000100450000004500010044000100C0
:1009200043000000430001004200000042000100BB
:100930004100000041000100400001003F000000B4
:100940003F0001003E0000003E0001003D000000AD
:100950003D0001003C0000003C0000003C000100A4
:100960003B0000003B0001003A0000003A0001009B
:100970003900000039000100380000003800000094
:100980003800010037000000370001003600000089
:100990003600000036000100350000003500000080
:1009A0003500010034000000340000003400010074
:1009B000330000003300000033000100320000006B
:1009C0003200000032000100310000003100000060
:1009D0003100010030000000300000003000010054
:1009E0002F0000002F0000002F0000002F0001004A
:1009F0002E0000002E0000002E0001002D0000003F
:100A00002D0000002D0000002D0001002C00000032
:100A10002C0000002C0000002C0001002B00000026
:100A20002B0000002B0000002B0001002A0000001A
:100A30002A0000002A0000002A000100290000000E
:100A40002900000029000000290000002900010001
:100A500028000000280000002800000028000000F6
:100A600028000100270000002700000027000000E8
:100A700027000000270001002600000026000000DB
:100A800026000000260000002600010025000000CE
:100A900025000000250000002500000025000000C2
:100AA00025000100240000002400000024000000B4
:100AB00024000000240001002300000023000000A7
:100AC000230000002300000023000000230000009A
:100AD000230001002200000022000000220000008C
:100AE000220000002200000022000100210000007E
:100AF0002100000021000000210000002100000072
:100B00002100000021000100200000002000000062
:100B10002000000020000000200000002000000055
:100B200020000000200001001F0000001F00000046
:100B30001F0000001F0000001F0000001F00000039
:100B40001F0001001E0000001E0000001E0000002B
:100B50001E00000024F4D43050C38E20C2A24017DF
:100B6000828B7011127A910D816CD90AA861E1080B
:100B7000C7586607615143061E4B5D05C145A70472
:100B80001A411104093D9803713931034036DB02E3
:100B900065339102D4305402802E1D02632CEE0185
:100BA000752AC501B028A001102781018F25640195
:100BB0002B244B01E0223401AC211F018D200D01BB
:100BC000801FFC00841EED00971DDF00B81CD200C2
:100BD000E61BC600201BBC00641AB200B219A800B4
:100BE0000A19A0006A189900D117910040178B00CC
:100BF000B516840031167E00B31579003A157300DE
:100C0000C7146F0058146A00EE136600881363005F
:100C100025135E00C7125B006C12570015125400BA
:100C2000C111510070114F0021114B00D610490025
:100C30008D1047004610440002104200C00F4000D3
:100C4000800F3E00420F3C00060F3B00CB0E3800E9
:100C5000930E37005C0E3500270E3400F30D320082
:100C6000C10D3100900D3000600D2E00320D2D00B1
:100C7000050D2C00D90C2B00AE0C2900850C290089
:100C80005C0C2700350C27000E0C2600E80B240016
:100C9000C40B2400A00B23007D0B23005A0B210062
:100CA000390B2100180B2000F80A1F00D90A1E007A
:100CB000BB0A1E009D0A1D00800A1D00630A1C005D
:100CC000470A1B002C0A1B00110A1A00F7091A0018
:100CD000DD091900C4091900AB09190092091700B0
:100CE0007B091800630917004C0916003609160025
:100CF000200916000A091500F5081500E00814007F
:100D0000CC081400B8081400A408140090081300BC
:100D10007D0812006B0813005808120046081200E4
:100D200034081100230811001208110001081100F5
:100D3000F0071000E0071000D0071000C0071000F7
:100D4000B0070F00A107100091070E0083070F00E6
:100D500074070F0065070E0057070E0049070E00C5
:100D60003B070D002E070E0020070D0013070D0096
:100D700006070D00F9060C00ED060D00E0060C005C
:100D8000D4060C00C8060C00BC060C00B0060C0013
:100D9000A4060B0099060C008D060B0082060B00C2
:100DA00077060B006C060B0061060A0057060B0065
:100DB0004C060A0042060A0038060A002E060A00FF
:100DC00024060A001A060A001006090007060A008F
:100DD000FD050900F4050900EB050900E20509001D
:100DE000D9050900D0050900C7050900BE0509009D
:100DF000B5050800AD050800A50509009C0508001B
:100E0000940508008C050800840508007C0508008E
:100E1000740508006C050700650508005D050700FE
:100E2000560508004E050700470507004005080065
:100E300038050700310507002A05070023050700CC
:100E40001C050600160507000F050700080506002B
:100E500002050700FB040600F5040700EE04060087
:100E6000E8040600E2040700DB040600D5040600DF
:100E7000CF040600C9040600C3040600BD04060032
:100E8000B7040600B1040500AC040600A604060081
:100E9000A00405009B0406009504050090040600CC
:100EA0008A04050085040500800406007A04050014
:100EB00075040500700405006B0405006604050058
:100EC000610405005C040500570405005204050098
:100ED0004D04050048040500430405003E040400D9
:100EE0003A04050035040500300404002C04050014
:100EF00027040400230405001E0404001A0404004F
:100F000016040500110404000D0404000904050082
:100F10000404040000040400FC030400F8030400BB
:100F2000F4030400F0030400EC030400E8030400ED
:100F3000E4030400E0030400DC030400D80304001D
:100F4000D4030400D0030400CC030400C80303004E
:100F5000C50303006563686F3A00205A3A002059C0
:100F60003A0020583A00656E6473746F707320689D
:100F700069743A20004572726F723A0054656D7060
:100F8000657261747572652068656174656420625C
:100F90006564207377697463686564206F66662E84
:100FA000204D494E54454D502074726967676572F3
:100FB00065642021210054656D70657261747572DD
:100FC0006520686561746564206265642073776973
:100FD0007463686564206F66662E204D41585445E1
:100FE0004D50207472696767657265642021210025
:100FF0003A204578747275646572207377697463FA
:10100000686564206F66662E204D494E54454D50EC
:10101000207472696767657265642021003A204513
:101020007874727564657220737769746368656437
:10103000206F66662E204D415854454D50207472E5
:1010400069676765726564202100202D20496E76EE
:10105000616C6964206578747275646572206E7560
:101060006D62657220210070012C0190012701B092
:10107000012201C0011D01F001180110021301300D
:10108000020E016002090190020401C002FF00008B
:1010900003FA004003F5008003F000D003EB0020CA
:1010A00004E6007004E100E004DC004005D700C065
:1010B00005D2004006CD00D006C8008007C300302E
:1010C00008BE00F008B900C009B400B00AAF00B013
:1010D0000BAA00D00CA500000EA000500F9B00C072
:1010E0001096005012910000148C00C0158700B0BB
:1010F000178200B0197D00D01B7800001E730040DD
:10110000206E0090226900F024640040275F009068
:10111000295A00E02B5500102E500020304B0010B3
:10112000324600E033410090353C00103737007004
:10113000383200A0392D00B03A2800A03B230060CF
:101140003C1E00103D1900903D1400103E0F007031
:101150003E0A00C03E0500003F00005049442041C7
:1011600075746F74756E652066696E697368656401
:10117000212050757420746865204B702C204B69B9
:1011800020616E64204B6420636F6E7374616E74B3
:101190007320696E746F20436F6E66696775726144
:1011A00074696F6E2E6800504944204175746F74E5
:1011B000756E65206661696C6564212074696D6572
:1011C0006F75740020403A006F6B20543A006F6BCB
:1011D00020423A00504944204175746F74756E6521
:1011E000206661696C6564212054656D706572616B
:1011F0007475726520746F6F206869676800204B92
:10120000643A2000204B693A2000204B703A2000BD
:1012100020436C6173696320504944200020547559
:101220003A2000204B753A2000206D61783A20006A
:10123000206D696E3A200020643A200020626961C6
:10124000733A200000002100240027002A002D000E
:101250003000330001010000040107010A01000011
:101260002200250028002B002E003100340002014E
:101270000000050108010B010000200023002600EA
:1012800029002C002F00320000010000030106019C
:1012900009010505050507050808080802020202FC
:1012A0000A0A080804040404010101010101010102
:1012B0000303030303030303040707070C0C0C0CCD
:1012C0000C0C0C0C020202020606060606060606B6
:1012D0000B0B0B0B0B0B0B0B010210202008081043
:1012E0002040102040800201020108040201010296
:1012F000040810204080804020100804020180046F
:1013000002018040201008040201080402010102C9
:1013100004081020408001020408102040800000D2
:10132000090A02080B0C0D07060304010000000067
:1013300000000000000000000000000000000000AD
:101340000000000000000000000011100F0000006D
:10135000000000000000000000000000000000008D
:1013600000000000494E46494E4954594E414ECD69
:10137000CCCC3D0AD7233C17B7D13877CC2B32954C
:1013800095E6241FB14F0A000020410000C842002A
:10139000401C4620BCBE4CCA1B0E5AAEC59D7400F4
:1013A0005F2482255A8C0D967D2511241FBECFEF18
:1013B000D1E2DEBFCDBF00E00CBF15E0A0E0B2E09F
:1013C000ECE7F2E401E00BBF02C007900D92A63CEF
:1013D000B107D9F71BBE16E1A6ECB5E001C01D921E
:1013E000A433B107E1F713E1C8EAD3E104C02297BF
:1013F000FE010E94E4A0C03AD107C9F70E944497B9
:101400000C9432A10C940000A0E0B0E0EAE0FAE015
:101410000C9401A1EC015B016115710519F0FB0150
:1014200091838083F9908F2D90E00E94E8A0892B12
:10143000C9F7FDE2FF1621F4F990EE24E39405C00C
:101440002BE2F21609F4F990EE248E0101501040BF
:10145000C80164E673E143E050E069D2892BF9F4F6
:101460008E010E5F1F4FC80167E673E145E050E053
:101470005ED2892B19F48E01095F1F4FA114B104AC
:1014800019F0F50111830083E0FC04C070E090E0E6
:1014900080E813C070E090E080E86FEF07C1C801FA
:1014A0006CE673E143E050E042D2892B69F4A11469
:1014B000B10429F470E090E080EC6FE7F7C0229669
:1014C000F501D183C083F6CF8824992440E050E011
:1014D00060E070E0EF2DE053EA30A0F5F2E0EF2A93
:1014E0008E2D90E09C0128703070E2FE06C0232B08
:1014F00079F50894811C911C2BC0232B19F00894BA
:1015000081089108DB01CA0112E0880F991FAA1F08
:10151000BB1F1A95D1F7480F591F6A1F7B1F440F35
:10152000551F661F771F4E0F511D611D711D4839D4
:1015300029E9520729E9620729E1720748F084E0A6
:10154000E82A06C0EE3F31F4E3FC39C098E0E92A0E
:10155000F990C0CFE53311F0E53189F529912D32AD
:1015600019F4E0E1EE2A05C02B3219F081E090E099
:1015700003C0299182E090E0E22FE053EA3018F0B6
:10158000C81BD90B1CC020E030E0FCE020383F072E
:101590005CF4C901880F991F880F991F280F391F04
:1015A000220F331F2E0F311DE991E053EA3068F30B
:1015B000E4FE03C0309521953F4F820E931ECE2C42
:1015C000DD24E1FE07C0A114B10421F02197F5014B
:1015D000D183C083CB01BA010E94499D7B018C015C
:1015E000F3E0CF22DD2423E0C216D10421F417FB5F
:1015F000109517F9109557016801C801B70120E04F
:1016000030E040E050E00E94A99C882309F44AC0E1
:1016100097FE0DC023E8E22E23E1F22E90948194F0
:1016200091089394C0E2D0E000E010E012C09BE982
:10163000E92E93E1F92EF6CFF701259135914591E9
:101640005491C601B5010E94899F5B016C018C1AFF
:101650009D0A8C169D0684F7D595C7950F5F1F4F81
:101660000630110529F08CEF9FEFE80EF91EF1CF3F
:10167000C501D6017C018D018C2D880F8D2D881F11
:101680008F3F51F0C601B50120E030E040E050E06E
:101690000E94A99C882331F482E290E09093331653
:1016A000809332167E2D9F2D802F612F272F392F6B
:1016B000482F562FB901CA01CDB7DEB7ECE00C9424
:1016C0001DA12F923F925F926F927F928F929F9275
:1016D000AF92BF92CF92DF92EF92FF920F931F9340
:1016E000CF93DF938C011B01EA016115710519F09D
:1016F000FB0191838083209749F0CE010297839765
:1017000028F020E030E040E050E0F6C0F801A19081
:101710008F018A2D90E00E94E8A0892BB9F7FDE2A5
:10172000AF1631F4F801A1908F015524539407C0EE
:10173000FBE2AF1619F4F801A1908F015524209710
:1017400019F0C031D105C1F4F0E3AF1679F4F80116
:101750008081883711F0883549F4F801A1800E5F47
:101760001F4FF2E05F2AC0E1D0E006C0209721F4CD
:1017700080E3A816E9F427C0C830D10531F1C9309B
:10178000D10524F4C230D10531F50CC0CA30D105E1
:1017900089F0C031D105F9F4C12CD12CE12CB8E08D
:1017A000FB2E28C0C12CD12CE12CA0E4FA2E22C0A3
:1017B000CAE0D0E0FCECCF2EFCECDF2EFCECEF2EF0
:1017C000FCE0FF2E17C0C8E0D0E0C12CD12CE12CEA
:1017D000E0E1FE2E0FC09E01442737FD4095542FB7
:1017E00060E070E080E090E80E94A5A0C901DA0105
:1017F0006C017D0120E030E040E050E060E03E011F
:10180000882477FC8094982C70EDB72EBA0CE9E010
:10181000EB1570F48A2D81548A3118F499ECB92EA5
:1018200006C08A2D81568A3150F589EAB82EBA0C45
:101830008B2D90E08C179D0714F56F3FE1F0C216D9
:10184000D306E406F506B0F0CA01B901A40193017C
:101850000E945FA09B01AC012B0D311D411D511D4C
:101860002130F0E03F07F0E04F07F0E85F0710F4A9
:1018700061E001C06FEFF801A1908F01C5CF211485
:10188000310481F0662331F001501040F1011183E1
:10189000008308C051FE1AC002501040F1011183AC
:1018A000008314C067FF12C050FC05C02FEF3FEF4C
:1018B0004FEF5FE704C020E030E040E050E882E214
:1018C00090E0909333168093321616C050FE08C0F5
:1018D00050954095309521953F4F4F4F5F4F0CC02D
:1018E00057FF0AC082E290E090933316809332163D
:1018F0002FEF3FEF4FEF5FE7B901CA01DF91CF91C3
:101900001F910F91FF90EF90DF90CF90BF90AF901D
:101910009F908F907F906F905F903F902F90089551
:10192000FB01DC0105900D920020E1F70895FB0119
:10193000DC014150504088F08D9181341CF08B3592
:101940000CF4805E659161341CF06B350CF4605EC4
:10195000861B611171F3990B0895881BFCCFFB0165
:1019600055915523A9F0BF01DC014D914517411157
:10197000E1F759F4CD010590002049F04D91401553
:101980004111C9F3FB014111EFCF81E090E00197D4
:101990000895FB01DC0104C08D910190801921F4B0
:1019A00041505040C8F7881B990B0895FB01DC019A
:1019B00002C001900D9241505040D8F70895FB01AC
:1019C000DC010D900020E9F7119701900D920020A5
:1019D000E1F70895FC018191861721F08823D9F75A
:1019E000992708953197CF010895FB01DC010190FB
:1019F0000D920020E1F70895FB01DC0141505040B9
:101A000030F08D910190801919F40020B9F7881BEE
:101A1000990B0895FB01DC014150504048F00190C2
:101A20000D920020C9F701C01D9241505040E0F7CF
:101A30000895FB019F01E8944230C4F04532B4F4AC
:101A40004A3029F497FB1EF4909581959F4F642F9F
:101A500077270E947EA0805D8A330CF0895D819398
:101A6000CB010097A1F716F45DE251931082C901F2
:101A70002CC2AEE0B0E0EFE3FDE00C9409A10E89CA
:101A80001F8986E08C831A8309838FEF9FE79E83EB
:101A90008D839E01265E3F4FCE010196688D798D24
:101AA000A9012DD02F813885020F131FF801108254
:101AB0002E96E4E00C9425A1AEE0B0E0E2E6FDE075
:101AC0000C9409A10E891F898EE08C831A830983E7
:101AD0008FEF9FE79E838D839E01265E3F4FCE0151
:101AE0000196688D798DA9010AD02F813885020F62
:101AF000131FF80110822E96E4E00C9425A1ABE0B0
:101B0000B0E0E5E8FDE00C94FBA03C012B015A019C
:101B1000FC0117821682838181FD03C06FEF7FEF86
:101B2000B9C19AE0892E1E010894211C311CF301D1
:101B30002381F20123FD859123FF81912F018823C9
:101B400009F4A5C1853239F423FD859123FF8191E4
:101B50002F01853221F490E0B301C7D1E8CF982F4F
:101B6000FF24EE249924FFE1FF15D0F09B3269F0A9
:101B70009C3228F4903259F0933291F40EC09D3289
:101B800049F0903369F441E024C052E0F52A84E042
:101B9000F82A28C098E0F92A25C0E0E1FE2A22C0F0
:101BA000F7FC29C0892F80538A3070F4F6FE05C0F7
:101BB000989C902C1124980E15C0E89CE02C1124C0
:101BC000E80EF0E2FF2A0EC09E3229F4F6FC5FC157
:101BD00040E4F42A07C09C3619F450E8F52A02C004
:101BE000983649F4F20123FD959123FF91912F013D
:101BF000992309F0B8CF892F8554833018F080528B
:101C0000833038F444E050E0A40EB51E5FE35983FE
:101C10000FC0933631F0933779F0933509F052C005
:101C20001FC0F5018081898342E050E0A40EB51EFB
:101C3000610101E010E011C0F501C080D180F6FC27
:101C400003C06FEF7FEF02C0692D70E042E050E00B
:101C5000A40EB51EC6012ED18C015FE7F52213C07C
:101C6000F501C080D180F6FC03C06FEF7FEF02C0AA
:101C7000692D70E042E050E0A40EB51EC6010FD100
:101C80008C0150E8F52AF3FE06C018C080E290E00F
:101C9000B3012BD1EA948E2D90E008171907B0F309
:101CA0000DC0F601F7FC8591F7FE81916F0190E080
:101CB000B3011BD1E110EA94015010400115110548
:101CC00081F7E2C0943611F0993661F5F7FE08C04D
:101CD000F501208131814281538184E090E00AC086
:101CE000F501808191819C01442737FD4095542F57
:101CF00082E090E0A80EB91E9FE6F92257FF09C0C6
:101D000050954095309521953F4F4F4F5F4FE0E8FC
:101D1000FE2ACA01B901A1012AE030E012D1D82E71
:101D2000D2183FC0953729F41F2D1F7E2AE030E0DE
:101D30001DC01F2D197F9F3661F0903720F4983514
:101D400009F0A5C00FC0903739F0983709F09FC04F
:101D500004C028E030E00AC0106114FD146020E1E6
:101D600030E004C014FD166020E132E017FF08C027
:101D7000F501608171818281938144E050E008C067
:101D8000F50180819181BC0180E090E042E050E06B
:101D9000A40EB51EA101D5D0D82ED2188FE7F82EEB
:101DA000F122F6FE0BC05EEFF522D91438F4F4FEF2
:101DB00007C0F2FC05C08FEEF82202C01D2D01C045
:101DC000192DF4FE0DC0FE01ED0DF11D8081803353
:101DD00019F499EEF92208C01F5FF2FE05C003C096
:101DE0008F2D867809F01F5F0F2DF3FC13C0F0FED6
:101DF0000EC01E1510F09D2C0AC09D2C9E0C911A31
:101E00001E2D05C080E290E0B3016FD01F5F1E154C
:101E1000C8F304C01E1510F4E11A01C0EE2404FF3B
:101E20000EC080E390E0B30160D002FF1BC001FD53
:101E300003C088E790E00EC088E590E00BC0802FDB
:101E4000867881F001FF02C08BE201C080E2F7FCDE
:101E50008DE290E0B30149D005C080E390E0B3018A
:101E600044D09A94D914C8F3DA94F101ED0DF11D20
:101E7000808190E0B30139D0DD20B1F705C080E268
:101E800090E0B30132D0EA94EE20C9F750CEF301CE
:101E900066817781CB012B96E2E10C9417A1FC01BE
:101EA0000590615070400110D8F7809590958E0F85
:101EB0009F1F0895FC016150704001900110D8F7F8
:101EC000809590958E0F9F1F0895DC01FC01672F70
:101ED00071917723E1F7329704C07C916D93708301
:101EE0006291AE17BF07C8F308950F931F93CF9366
:101EF000DF938C01EB018B8181FF1BC082FF0DC042
:101F00002E813F818C819D812817390764F4E881F7
:101F1000F9810193F983E88306C0E885F985802F6C
:101F20001995892B31F48E819F8101969F838E8331
:101F300002C00FEF1FEFC801DF91CF911F910F91EA
:101F40000895FA01AA27283051F1203181F1E8944F
:101F50006F936E7F6E5F7F4F8F4F9F4FAF4FB1E09C
:101F60003ED0B4E03CD0670F781F891F9A1FA11D97
:101F7000680F791F8A1F911DA11D6A0F711D811D98
:101F8000911DA11D20D009F468943F912AE0269F5D
:101F900011243019305D3193DEF6CF010895462FBC
:101FA0004770405D4193B3E00FD0C9F7F6CF462F9D
:101FB0004F70405D4A3318F0495D31FD4052419306
:101FC00002D0A9F7EACFB4E0A695979587957795C3
:101FD0006795BA95C9F700976105710508959B014A
:101FE000AC010A2E06945795479537952795BA95D3
:101FF000C9F7620F731F841F951FA01D0895FC0170
:10200000128214820895FC018481882319F081E0F2
:10201000828313820895FC018281882319F0128241
:1020200081E083830895FC01E651FE4F6081718158
:10203000828193810895FC01EE50FE4F6081718191
:10204000828193810895FC018FE995E091838083DB
:102050008781882321F0CF0104960C940D670895A1
:102060000F931F93CF93DF938C010E94D3740E9430
:10207000B074C80181539E4F0E940D67F80112820F
:102080008CEF95E06AE070E045E050E021E030E060
:102090000E94A98B8FE291E00E944A468091200B1A
:1020A000882301F11092200B8091A308C82FD0E063
:1020B000CC0FDD1FCD59DD4E68817981882777FDF2
:1020C0008095982F0E944B9D20910105309102052B
:1020D00040910305509104050E94B79E181614F410
:1020E00019821882DF91CF911F910F910895EF927D
:1020F000FF920F931F938C019FECE92E91E0F92E34
:10210000E00EF11EC7010E94BE66C7010E940D6766
:10211000F801108211821F910F91FF90EF900895A6
:102120000F931F93CF93DF93DC01D4961C92D49727
:10213000D7961C92D797D3961C921E92D2978FE96E
:1021400095E0D1969C938E93D097AB5ABF4F1C923B
:1021500013961C92A855B040FD01EF5AFF4FAD5A9F
:10216000BF4F11961C921E92A355B040918380835D
:10217000ED01C059DF4FFE0120E030E0482F14820E
:1021800017821382128240839183215E3F4F7F9694
:1021900081E02633380799F7A755BE4F89E18C9324
:1021A00013961C9258961C921B961C9213961C9286
:1021B000A25DB140FD01E553FE4FA353BE4F119602
:1021C0001C921E92408391835D961D921D921D92DA
:1021D0001C92139718961D921D921D921C92139794
:1021E000A25FB14012961C92129713961C921397FD
:1021F00014961C9214971C9211961C9211978D01A3
:1022000002511E4FF8011082118212821382AA55C8
:10221000BE4F11961C921E92FE01C90111920197A8
:10222000E9F7A05BBF4F81E08C93A65FB1409F961A
:102230001C921E929E970E94C88E68577C4E8F4FAC
:102240009F4FF8016083718382839383DF91CF91E5
:102250001F910F910895CF92DF92EF92FF920F930B
:102260001F93CF93DF937C016B01DB010D90002066
:10227000E9F78D0101501040061B170BEFECF1E060
:10228000EE0EFF1ED7011C92E1E3FEEFEE0EFF1EE5
:10229000CB016EE470E09EDBEC01009731F4F801B5
:1022A0003197EC0DFD1D86010CC060E270E092DB01
:1022B0008C010F5F1F4FCE016AE270E08BDBFC01E7
:1022C00031978DE081838AE082831382C701855331
:1022D0009E4FB8010E94F26E8FEC91E0E80EF91E5D
:1022E000D7018C91882339F1EBE6F1E06491EF019D
:1022F0000AC0772767FD709586EA95E10E94CD9523
:102300002196FE0164916623A1F7E2E7F1E0649172
:10231000EF010AC0772767FD709586EA95E10E9474
:10232000CD952196FE0164916623A1F786EA95E199
:102330006AE00E94CD95DF91CF911F910F91FF90A0
:10234000EF90DF90CF9008950F931F93CF93DF937B
:10235000EC018C81882309F43FC0EAE9F1E0649143
:102360008F010BC0772767FD709586EA95E10E9483
:10237000CD950F5F1F4FF8016491662399F7CE50FA
:10238000DE4F488159816A817B81C25FD14086EAF4
:1023900095E12AE030E00E942A98E8E9F1E06491B2
:1023A0008F010BC0772767FD709586EA95E10E9443
:1023B000CD950F5F1F4FF8016491662399F7C651C1
:1023C000DE4F488159816A817B8186EA95E12AE066
:1023D00030E00E942A9811C0E8E8F1E06491EF0132
:1023E0000AC0772767FD709586EA95E10E94CD9532
:1023F0002196FE0164916623A1F786EA95E16AE0E1
:102400000E94CD95DF91CF911F910F9108952F924A
:102410003F924F925F926F927F928F929F92AF9274
:10242000BF92CF92DF92EF92FF920F931F93DF93B1
:10243000CF93CDB7DEB7AD970FB6F894DEBF0FBE22
:10244000CDBF5C014B014DA7FC018481882309F4B9
:10245000D3C1EFEC4E2EE1E05E2E4A0C5B1CC201B4
:102460000E940D67F50112821A8A1D8A198A188A3C
:102470008FE995E09F878E877FE4C72ED12CCA0C09
:10248000DB1C20E330E0A20EB31EF601B182A08275
:1024900020ED3FEFA20EB31EF40180818F3209F0D0
:1024A00080C0C4016FE270E095DA7C010894E11C01
:1024B000F11C3E010894611C711C16016DC0C7011E
:1024C0006FE270E087DA6C01009709F478C0E816D3
:1024D000F90608F074C08C010E191F09C301B70179
:1024E000A80198DA060D171DF801108286EA95E119
:1024F000B3010E94FE9886EA95E16AE00E94CD95BC
:10250000F101608171816115710519F460E070E07D
:1025100002C06C5F7F4FCE014296A30121E00E9472
:10252000F96D882371F5EEE4F2E064917F010CC04F
:10253000772767FD709586EA95E10E94CD9508940E
:10254000E11CF11CF7016491662391F786EA95E19D
:10255000BE016F5F7F4F0E94FE98ECE4F2E0649151
:102560007F010CC0772767FD709586EA95E10E9490
:10257000CD950894E11CF11CF7016491662391F755
:1025800033C12EE030E02C0F3D1FF1013183208359
:1025900076010894E11CF11CE114F10409F08FCFDD
:1025A0000BC081E590E0A80EB91EF601B182A082B1
:1025B0002FEA3FEFA20EB31E082DD92C02C00E2D1C
:1025C000DF2CF501E15BFF4F3DA5332309F4B2C0D9
:1025D000608171816115710519F460E070E002C0DD
:1025E0006C5F7F4FC201402F5D2D21E00E94F96D8D
:1025F000882309F472C0A50146515E4F80EE91E038
:10260000A80EB91EF50180819181A281B38120E2DB
:102610003EEFA20EB31EFA0180839183A283B3839F
:10262000EEE3F2E064917F010CC0772767FD7095BF
:1026300086EA95E10E94CD950894E11CF11CF70112
:102640006491662391F786EA95E1602F7D2D0E94C3
:10265000FE98E6E3F2E064917F010CC0772767FD06
:10266000709586EA95E10E94CD950894E11CF11CD5
:10267000F7016491662391F72AEE31E0A20EB31EB2
:10268000F501408151816281738186EA95E12AE0FA
:1026900030E00E942A9886EA95E16AE00E94CD9592
:1026A00028E030E0A20EB31EF501108211821282E2
:1026B0001382E8E2F2E064917F010CC0772767FDA6
:1026C000709586EA95E10E94CD950894E11CF11C75
:1026D000F7016491662391F787C0E4E1F2E0649129
:1026E0007F010CC0772767FD709586EA95E10E940F
:1026F000CD950894E11CF11CF7016491662391F7D4
:1027000086EA95E1602F7D2D0E94FE98E2E1F2E0DD
:1027100064917F010CC0772767FD709586EA95E18B
:102720000E94CD950894E11CF11CF7016491662389
:1027300091F75AC0608171816115710519F460E0EB
:1027400070E002C06C5F7F4FC201402F5D2D26E517
:102750000E94F96D882369F5EEEFF1E064917F0145
:102760000CC0772767FD709586EA95E10E94CD95AC
:102770000894E11CF11CF7016491662391F786EA45
:1027800095E1602F7D2D0E94FE98ECEFF1E06491C1
:102790007F010CC0772767FD709586EA95E10E945E
:1027A000CD950894E11CF11CF7016491662391F723
:1027B0001BC081E0F5018083EAEEF1E064917F01C6
:1027C0000CC0772767FD709586EA95E10E94CD954C
:1027D0000894E11CF11CF7016491662391F786EAE5
:1027E00095E1B4010E94FE9886EA95E16AE00E94B4
:1027F000CD95CE010E9627DCAD960FB6F894DEBFD0
:102800000FBECDBFCF91DF911F910F91FF90EF9041
:10281000DF90CF90BF90AF909F908F907F906F9000
:102820005F904F903F902F900895FC0181E081834D
:10283000CF0140E0ECCD2F923F924F925F926F928A
:102840007F928F929F92AF92BF92CF92DF92EF9240
:10285000FF920F931F93DF93CF93CDB7DEB7AC9763
:102860000FB6F894DEBF0FBECDBF5C014B01FC017B
:102870008481882309F426C1C50181539E4F0E949B
:102880000D67F50112821A8A1D8A198A188A8FE942
:1028900095E09F878E87AFE4CA2ED12CCA0CDB1C33
:1028A00020E330E0A20EB31EF601B182A08220ED3B
:1028B0003FEFA20EB31EF40180818F3209F084C075
:1028C000C4016FE270E086D87C010894E11CF11C21
:1028D0003E010894611C711C2601F2E12F2E312C5F
:1028E0002C0E3D1E6CC0C7016FE270E073D86C0106
:1028F000009709F477C0E816F90608F073C08C0158
:102900000E191F09C301B701A80184D8060D171DB0
:10291000F801108286EA95E1B3010E94FE9886EAEA
:1029200095E16AE00E94CD95F201608171816115A7
:10293000710519F460E070E002C06C5F7F4FC10167
:10294000A30121E00E94F96D882371F5E6EDF1E025
:1029500064917F010CC0772767FD709586EA95E149
:102960000E94CD950894E11CF11CF7016491662347
:1029700091F786EA95E1BE016F5F7F4F0E94FE9856
:10298000E4EDF1E064917F010CC0772767FD70955D
:1029900086EA95E10E94CD950894E11CF11CF701AF
:1029A0006491662391F786C02EE030E02C0F3D1F26
:1029B000F2013183208376010894E11CF11CE114BB
:1029C000F10409F090CF0BC081E590E0A80EB91E8C
:1029D000F601B182A0822FEA3FEFA20EB31ED82CDF
:1029E000092D02C0DE2C0F2D8FE490E0A80EB91E39
:1029F000F5018081918121EB3FEFA20EB31E00977C
:102A000019F480E090E001C004966D2D702F0E94B3
:102A1000C56E882319F1E6ECF1E064917F010CC0EA
:102A2000772767FD709586EA95E10E94CD95089419
:102A3000E11CF11CF7016491662391F786EA95E1A8
:102A40006D2D702F0E94FE9822EF31E0A20EB31E72
:102A5000F501108211821282138231C0EEEAF1E098
:102A600064917F010CC0772767FD709586EA95E138
:102A70000E94CD950894E11CF11CF7016491662336
:102A800091F786EA95E16D2D702F0E94FE98ECEA91
:102A9000F1E064917F010CC0772767FD709586EAAD
:102AA00095E10E94CD950894E11CF11CF701649119
:102AB000662391F786EA95E16AE00E94CD95CE0102
:102AC0000E96C1DAAC960FB6F894DEBF0FBECDBF3E
:102AD000CF91DF911F910F91FF90EF90DF90CF90FA
:102AE000BF90AF909F908F907F906F905F904F902E
:102AF0003F902F900895EF92FF920F931F93CF93E3
:102B0000DF937C01FC01148287A9882321F0C7018F
:102B1000C4960E940D67870108551E4FC80160E0EA
:102B200045E30E94BA64882319F5EBE3F1E0649170
:102B3000EF010AC0772767FD709586EA95E10E944C
:102B4000CD952196FE0164916623A1F7E0E9F2E0BC
:102B50006491EF010AC0772767FD709586EA95E1D9
:102B60000E94CD952196FE0164916623A1F783C052
:102B7000E701C355DE4FCE01B80141E00E94836FEB
:102B8000882351F5CE01B80140E00E94836F88236D
:102B900019F5EBE6F1E06491EF010AC0772767FDD4
:102BA000709586EA95E10E94CD952196FE0164918B
:102BB0006623A1F7EDE7F2E06491EF010AC0772701
:102BC00067FD709586EA95E10E94CD952196FE01FC
:102BD00064916623A1F74FC0C701C496BE010E944D
:102BE000FF69882319F5EBE6F1E06491EF010AC073
:102BF000772767FD709586EA95E10E94CD9521962D
:102C0000FE0164916623A1F7EDE6F2E06491EF0125
:102C10000AC0772767FD709586EA95E10E94CD95F9
:102C20002196FE0164916623A1F725C081E0F7019A
:102C30008483EBE3F1E06491EF010AC0772767FD3D
:102C4000709586EA95E10E94CD952196FE016491EA
:102C50006623A1F7E2E6F2E06491EF010AC077276C
:102C600067FD709586EA95E10E94CD952196FE015B
:102C700064916623A1F786EA95E16AE00E94CD950A
:102C8000D701AB5ABF4FF701F4968BE101900D923B
:102C90008150E1F7F70182A993A923E530E0E20E24
:102CA000F31EF701918380832DEA3FEFE20EF31EBE
:102CB000C701C096EFE4F0E0EE0EFF1EF70191832E
:102CC0008083DF91CF911F910F91FF90EF90089536
:102CD0002F923F924F925F926F927F929F92AF920C
:102CE000BF92CF92DF92EF92FF920F931F93DF93E9
:102CF000CF93CDB7DEB7CC55D0400FB6F894DEBF3A
:102D00000FBECDBF6C01662311F526EF31E0C20E78
:102D1000D31ED6018C91EAE0FEEFCE0EDF1E882393
:102D200009F4E3C02EEE31E0C20ED31ED601ED90C1
:102D3000FD900D911C91E2E1FEEFCE0EDF1E0E9490
:102D4000C88EE616F7060807190708F4CEC026EF66
:102D500031E0C20ED31ED6011C92EAE0FEEFCE0E89
:102D6000DF1ED60114968C91882339F4C601C3DE88
:102D7000F6018481882309F4B8C000D000D0EDB7F3
:102D8000FEB731967E010894E11CF11CADB7BEB7C9
:102D90001296FC92EE92119782E691E093838283E1
:102DA000D6019E968D919C919F97958384830E94D6
:102DB0005C0D8701EDB7FEB736960FB6F894FEBFEF
:102DC0000FBEEDBF57010AC0D8018C91992787FD2E
:102DD00090950E94F0A0F80181938F01F501019078
:102DE0000020E9F73197EA19FB09802F8E198E1719
:102DF0005CF384E3A82EB12CAC0CBD1CC50140E0F3
:102E000050E060E070E00E94F46599240DE3E02E4C
:102E1000F12CEC0EFD1E2E010894411C511C1FE1EB
:102E2000612E712C6C0E7D1EBBE52B2EB1E03B2E6E
:102E300042C0D8018C9190E00E94F0A0F8018193EB
:102E40008F01D7010D900020E9F71197AE19BF0946
:102E5000802F8E198A176CF327968FAD27978E37A0
:102E600051F1C701B20145E050E00E94FC0C00970F
:102E700011F500D000D0EDB7FEB73196ADB7BEB7B3
:102E800012967C926E9211973382228255824482EE
:102E90000E945C0DEDB7FEB736960FB6F894FEBFF4
:102EA0000FBEEDBFC3010E94CA4687E591E00E94B4
:102EB0004A4699249394C501B70140E050E00E942E
:102EC0001E69181614F48701BCCF992041F48FEFC6
:102ED0009FEFD6019F969C938E939E9706C0F60116
:102EE00086A597A5019697A786A7C45ADF4F0FB668
:102EF000F894DEBF0FBECDBFCF91DF911F910F9130
:102F0000FF90EF90DF90CF90BF90AF909F907F9019
:102F10006F905F904F903F902F9008952F923F9227
:102F20004F925F926F927F928F929F92AF92BF92D9
:102F3000CF92DF92EF92FF920F931F93DF93CF9385
:102F4000CDB7DEB7CF58D0400FB6F894DEBF0FBE76
:102F5000CDBF7C012B015A0184E090E0A80EB91E80
:102F6000F7017296C757DF4FF983E883C958D040FD
:102F7000C7010596CA57DF4F99838883C658D0404A
:102F8000C857DF4F1882C858D04046E6C42ED12C0F
:102F9000CC0EDD1EF6013B96C557DF4FF983E88363
:102FA000CB58D04037EF632E31E0732E6E0C7F1C70
:102FB00029EF822E21E0922E8E0C9F1C97E4292E61
:102FC000312C2C0E3D1EC1010496C357DF4F99834F
:102FD0008883CD58D040EBE3F1E09491C157DF4FA7
:102FE0009883CF58D04035C1F6018385482F50E0F3
:102FF000BA01687170706031710509F038C1F30170
:10300000208131812130310509F431C1223031056F
:1030100009F42DC1F601DE0111969081903239F04C
:103020008E2F8C19883011F48EE28D939D933196FA
:10303000C557DF4F88819981CB58D040E817F907F1
:1030400061F71C921E86F2018081882331F4CE0143
:103050000E9660E072E00E94DF0CCE010E96B20187
:103060000E94DF0CCE010E96BE016F5F7F4F0E9463
:10307000DF0CCE010E9660E072E00E94DF0C1CA611
:103080001FA61BA61AA68FE995E099A788A7CE01CF
:103090008C96B501AE014F5F5F4F21E00E94F96D44
:1030A000882389F5F30180819181892B61F5C157CE
:1030B000DF4F6881CF58D0400BE311E00BC077277A
:1030C00067FD709586EA95E10E94CD950F5F1F4FD1
:1030D000F8016491662399F786EA95E162E072E06F
:1030E0000E94FE9886EA95E16AE00E94CD9586EA04
:1030F00095E1BE016F5F7F4F0E94FE9886EA95E1E1
:103100006AE00E94CD95C357DF4FA881B981CD58A1
:10311000D040FE01BC968BE101900D928150E1F709
:103120008AA59BA5F101938382838FE995E0918322
:103130008083C701BE01625F7F4FA101EFDEC10145
:103140000E942310CE0188960E94231082C0953ED3
:1031500009F47FC09E3209F47CC09F3509F479C020
:10316000F7019289992331F09E3209F472C09F359C
:1031700009F46FC043FD6DC080E06031710509F452
:1031800081E0F70185A7882349F4F601808587341B
:1031900009F05FC081858E3709F45BC0CA57DF4FE5
:1031A000A881B981C658D040F6018081803241F0B3
:1031B0008E2F8C19883011F48EE28D9380818D933F
:1031C0003196C557DF4F88819981CB58D040E81799
:1031D000F90759F71C92F301808191810097A9F4B6
:1031E00086EA95E1B2010E94FE9886EA95E1CA5707
:1031F000DF4F68817981C658D0400E94FE9886EAE8
:1032000095E16AE00E94CD9524C08130910539F4A2
:10321000F401808191810196918380831AC0029785
:10322000C1F4C857DF4FF881C858D0402F2F30E085
:10323000F4018081918128173907F1F0C857DF4FD9
:10324000F881C858D040FF5FC857DF4FF883C8588F
:10325000D040C501B601C757DF4F48815981C958D1
:10326000D0400E941E6918160CF4BECE05C0F601AF
:103270009081992309F06BCFC157DF4F0FB6F894B7
:10328000DEBF0FBECDBFCF91DF911F910F91FF9099
:10329000EF90DF90CF90BF90AF909F908F907F90F6
:1032A0006F905F904F903F902F900895EF92FF9214
:1032B0000F931F93DF93CF93CDB7DEB76F970FB602
:1032C000F894DEBF0FBECDBF7C018C01015B1F4FA8
:1032D0008F5A9F4FF8019183808327EF31E0E20EF0
:1032E000F31E21E030E0F701219331937F01118239
:1032F000108227E03EEFE20EF31E049640E050E01D
:1033000060E070E00E94F465F80120813181DE0107
:103310001596F90134968BE101900D928150E1F7F9
:10332000F901828193819C838B838FE995E09A8355
:103330008983C70165E172E08E010F5F1F4FA8010D
:10334000EDDDC8010E942310F701E750FE4F808198
:1033500091816F960FB6F894DEBF0FBECDBFCF91AF
:10336000DF911F910F91FF90EF900895EF92FF92E0
:103370000F931F93DF93CF93CDB7DEB76F970FB641
:10338000F894DEBF0FBECDBF7C018C01015B1F4FE7
:103390008F5A9F4FF8019183808327EF31E0E20E2F
:1033A000F31E22E030E0F7013183208329E03EEF75
:1033B000E20EF31EF701E750FE4F60831182049680
:1033C00040E050E060E070E00E94F465F801208188
:1033D0003181DE011596F90134968BE101900D9251
:1033E0008150E1F7F901828193819C838B838FE97E
:1033F00095E09A838983C70165E172E08E010F5FD2
:103400001F4FA8018BDDC8010E9423106F960FB6D5
:10341000F894DEBF0FBECDBFCF91DF911F910F910A
:10342000FF90EF900895EF92FF920F931F93DF9319
:10343000CF93CDB7DEB76F970FB6F894DEBF0FBE50
:10344000CDBF7C0187EF91E0E80EF91EF7011182F4
:10345000108289E09EEFE80EF91E87010C5C1F4F79
:10346000C80140E050E060E070E00E94F465DE01D9
:103470001596F8018BE101900D928150E1F7F7016B
:1034800082A993A99C838B838FE995E09A83898392
:10349000C70165E172E08E010F5F1F4FA8013EDD9D
:1034A000C8010E9423106F960FB6F894DEBF0FBEBE
:1034B000CDBFCF91DF911F910F91FF90EF900895B5
:1034C0000F931F93DF93CF93CDB7DEB7A0970FB6BF
:1034D000F894DEBF0FBECDBF809116029091170207
:1034E000A0911802B0911902898F9A8FAB8FBC8F6F
:1034F000FE01799624E630E08081F999FECF1FBA6B
:1035000032BD21BD80BD0FB6F894FA9AF99A0FBE6C
:103510002F5F3F4F2836310511F03196EDCFE4ECA7
:10352000FAE08081F999FECF1FBA32BD21BD80BD7E
:103530000FB6F894FA9AF99A0FBE2F5F3F4F2837CB
:10354000310511F03196EDCFE4EBFAE08081F99985
:10355000FECF1FBA32BD21BD80BD0FB6F894FA9AD6
:10356000F99A0FBE2F5F3F4F2838310511F0319681
:10357000EDCFE4EDFAE08081F999FECF1FBA32BDBC
:1035800021BD80BD0FB6F894FA9AF99A0FBE2F5F4D
:103590003F4F2839310511F03196EDCFE8EEFAE0D2
:1035A0008081F999FECF1FBA32BD21BD80BD0FB613
:1035B000F894FA9AF99A0FBE2F5F3F4F2C393105D4
:1035C00011F03196EDCFECEEFAE08081F999FECF63
:1035D0001FBA32BD21BD80BD0FB6F894FA9AF99A90
:1035E0000FBE2F5F3F4F203A310511F03196EDCFDE
:1035F000E4EEFAE08081F999FECF1FBA32BD21BD19
:1036000080BD0FB6F894FA9AF99A0FBE2F5F3F4F1C
:10361000243A310511F03196EDCFECEFFAE08081DC
:10362000F999FECF1FBA32BD21BD80BD0FB6F89407
:10363000FA9AF99A0FBE2F5F3F4F283A310511F0E1
:103640003196EDCFE0EBFAE08081F999FECF1FBA19
:1036500032BD21BD80BD0FB6F894FA9AF99A0FBE1B
:103660002F5F3F4F2C3A310511F03196EDCFE0EF4F
:10367000FAE08081F999FECF1FBA32BD21BD80BD2D
:103680000FB6F894FA9AF99A0FBE2F5F3F4F203B7E
:10369000310511F03196EDCFE4EFFAE08081F99930
:1036A000FECF1FBA32BD21BD80BD0FB6F894FA9A85
:1036B000F99A0FBE2F5F3F4F243B310511F0319631
:1036C000EDCFE8EFFAE08081F999FECF1FBA32BD65
:1036D00021BD80BD0FB6F894FA9AF99A0FBE2F5FFC
:1036E0003F4F283B310511F03196EDCFEBE8F8E084
:1036F0008081F999FECF1FBA32BD21BD80BD0FB6C2
:10370000F894FA9AF99A0FBE2F5F3F4F243C310587
:1037100011F03196EDCFE6ECF5E08081F999FECF1E
:103720001FBA32BD21BD80BD0FB6F894FA9AF99A3E
:103730000FBE2F5F3F4F283C310511F03196EDCF82
:10374000E0EDF4E08081F999FECF1FBA32BD21BDD2
:1037500080BD0FB6F894FA9AF99A0FBE2F5F3F4FCB
:103760002C3C310511F03196EDCF87ED90E09A8336
:1037700089838DE290E09C838B831E821D8280EF83
:1037800090E098878F8386E490E09A8789871C86EB
:103790001B8681EE90E09E878D878CE390E0988B6E
:1037A0008F871A8A198A84EB90E09C8B8B8B88E236
:1037B00090E09E8B8D8B188E1F8AFE013196808142
:1037C000F999FECF1FBA32BD21BD80BD0FB6F89466
:1037D000FA9AF99A0FBE2F5F3F4F2E3C310571F7D1
:1037E000FE0133968081F999FECF1FBA32BD21BD0B
:1037F00080BD0FB6F894FA9AF99A0FBE2F5F3F4F2B
:10380000203D310511F03196EDCFFE0135968081D6
:10381000F999FECF1FBA32BD21BD80BD0FB6F89415
:10382000FA9AF99A0FBE2F5F3F4F223D310511F0F2
:103830003196EDCFFE0137968081F999FECF1FBA00
:1038400032BD21BD80BD0FB6F894FA9AF99A0FBE29
:103850002F5F3F4F243D310511F03196EDCFFE0132
:1038600039968081F999FECF1FBA32BD21BD80BD46
:103870000FB6F894FA9AF99A0FBE2F5F3F4F263D84
:10388000310511F03196EDCFFE013B968081F9991B
:10389000FECF1FBA32BD21BD80BD0FB6F894FA9A93
:1038A000F99A0FBE2F5F3F4F283D310511F0319639
:1038B000EDCFFE013D968081F999FECF1FBA32BD52
:1038C00021BD80BD0FB6F894FA9AF99A0FBE2F5F0A
:1038D0003F4F2A3D310511F03196EDCFFE013F9665
:1038E0008081F999FECF1FBA32BD21BD80BD0FB6D0
:1038F000F894FA9AF99A0FBE2F5F3F4F2C3D31058D
:1039000011F03196EDCFFE0171968081F999FECFCD
:103910001FBA32BD21BD80BD0FB6F894FA9AF99A4C
:103920000FBE2F5F3F4F2E3D310511F03196EDCF89
:10393000FE0173968081F999FECF1FBA32BD21BD79
:1039400080BD0FB6F894FA9AF99A0FBE2F5F3F4FD9
:10395000203E310511F03196EDCFFE017596808144
:10396000F999FECF1FBA32BD21BD80BD0FB6F894C4
:10397000FA9AF99A0FBE2F5F3F4F223E310511F0A0
:103980003196EDCFFE0177968081F999FECF1FBA6F
:1039900032BD21BD80BD0FB6F894FA9AF99A0FBED8
:1039A0002F5F3F4F243E310511F03196EDCFE2E11C
:1039B000F5E08081F999FECF1FBA32BD21BD80BDEF
:1039C0000FB6F894FA9AF99A0FBE2F5F3F4F283E30
:1039D000310511F03196EDCFE6E1F5E08081F999FE
:1039E000FECF1FBA32BD21BD80BD0FB6F894FA9A42
:1039F000F99A0FBE2F5F3F4F2C3E310511F03196E3
:103A0000EDCFEAE1F5E08081F999FECF1FBA32BD32
:103A100021BD80BD0FB6F894FA9AF99A0FBE2F3ED9
:103A2000310521F02F5F3F4F3196EDCF80911A0283
:103A300090911B02A0911C02B0911D028D8F9E8F50
:103A4000AF8FB8A3FE017D9684E690E02081F999BE
:103A5000FECF1FBA92BD81BD20BD0FB6F894FA9A71
:103A6000F99A0FBE8736910519F001963196EECF7F
:103A7000EDE9F2E064918F010BC0772767FD709547
:103A800086EA95E10E94CD950F5F1F4FF801649182
:103A9000662399F7EFEDF2E064918F010BC0772771
:103AA00067FD709586EA95E10E94CD950F5F1F4FE7
:103AB000F8016491662399F786EA95E16AE00E942D
:103AC000CD95A0960FB6F894DEBF0FBECDBFCF91B7
:103AD000DF911F910F910895EF92FF920F931F9323
:103AE000DF93CF93CDB7DEB7E0970FB6F894DEBF84
:103AF0000FBECDBFDE011196EFE4F5E080E101904D
:103B00000D928150E1F7DE015196EFE3F5E080E19F
:103B100001900D928150E1F7DE019196EFE2F5E020
:103B200080E101900D928150E1F789819A81AB810A
:103B3000BC818093C40A9093C50AA093C60AB0932F
:103B4000C70A89899A89AB89BC898093B40A909302
:103B5000B50AA093B60AB093B70A89A19AA1ABA1FE
:103B6000BCA18093D40A9093D50AA093D60AB093AF
:103B7000D70A8D819E81AF81B8858093C80A9093C2
:103B8000C90AA093CA0AB093CB0A8D899E89AF89CE
:103B9000B88D8093B80A9093B90AA093BA0AB093EB
:103BA000BB0A8DA19EA1AFA1B8A58093D80A90931E
:103BB000D90AA093DA0AB093DB0A89859A85AB8586
:103BC000BC858093CC0A9093CD0AA093CE0AB09383
:103BD000CF0A898D9A8DAB8DBC8D8093BC0A909352
:103BE000BD0AA093BE0AB093BF0A89A59AA5ABA54A
:103BF000BCA58093DC0A9093DD0AA093DE0AB09303
:103C0000DF0A8D859E85AF85B8898093D00A909311
:103C1000D10AA093D20AB093D30A8D8D9E8DAF8D19
:103C2000B8A18093C00A9093C10AA093C20AB0932E
:103C3000C30A8DA59EA5AFA5B8A98093E00A90936D
:103C4000E10AA093E20AB093E30A0E94A15180E046
:103C500090E8ABEBB4E48093E80A9093E90AA09370
:103C6000EA0AB093EB0A80E090E0AAEFB4E4809314
:103C7000EC0A9093ED0AA093EE0AB093EF0A20E0CD
:103C800030E040E050E02093E40A3093E50A4093AE
:103C9000E60A5093E70A80E29EE4A0E0B0E0809359
:103CA000B00A9093B10AA093B20AB093B30A2093DA
:103CB000FC0A3093FD0A4093FE0A5093FF0A0F2E30
:103CC000F0E0EF2EF0E0FF2EF0EA0F2FF0E41F2FD0
:103CD000F02DE092F00AF092F10A0093F20A1093AC
:103CE000F30A8DEC9CECACECBEE38093F40A909369
:103CF000F50AA093F60AB093F70AE092F80AF09258
:103D0000F90A0093FA0A1093FB0A20939308309360
:103D10009408409395085093960820938F08309309
:103D20009008409391085093920820938B08309309
:103D30008C0840938D0850938E082093C6053093CD
:103D4000C7054093C8055093C9058DEC9CECACE4C5
:103D5000BEE38093D0049093D104A093D204B09397
:103D6000D30483EC95EFA0EAB1E48093120590931D
:103D70001305A0931405B093150566EF78E28CE95E
:103D80009FE30E945F7D60931605709317058093F3
:103D90001805909319056DEC7CEC82EC92E40E947E
:103DA0006B7D60931A0570931B0580931C0590939F
:103DB0001D050E94707C80E090E0A0E8BFE3809346
:103DC0001E0590931F05A0932005B0932105EDE9F2
:103DD000F2E064918F010BC0772767FD709586EA4A
:103DE00095E10E94CD950F5F1F4FF8016491662306
:103DF00099F7E3EAF2E064918F010BC0772767FD42
:103E0000709586EA95E10E94CD950F5F1F4FF801EE
:103E10006491662399F786EA95E16AE00E94CD9560
:103E2000E0960FB6F894DEBF0FBECDBFCF91DF9105
:103E30001F910F91FF90EF9008950F931F93DF93C1
:103E4000CF93CDB7DEB7A0970FB6F894DEBF0FBE05
:103E5000CDBF80911A0290911B02A0911C02B091DB
:103E60001D028D8F9E8FAF8FB8A3FE01799604E659
:103E700010E0F999FECF12BD01BDF89A80B580839C
:103E80000F5F1F4F0836110511F03196F2CFCE01AA
:103E90004D96BE01675E7F4F43E050E00E94FC0CF0
:103EA000009709F0FCC1E4ECFAE0F999FECF12BDED
:103EB00001BDF89A80B580830F5F1F4F0837110549
:103EC00011F03196F2CFE4EBFAE0F999FECF12BD92
:103ED00001BDF89A80B580830F5F1F4F0838110528
:103EE00011F03196F2CFE4EDFAE0F999FECF12BD70
:103EF00001BDF89A80B580830F5F1F4F0839110507
:103F000011F03196F2CF0E94A151E8EEFAE0F99952
:103F1000FECF12BD01BDF89A80B580830F5F1F4FA1
:103F20000C39110511F03196F2CFECEEFAE0F99967
:103F3000FECF12BD01BDF89A80B580830F5F1F4F81
:103F4000003A110511F03196F2CFE4EEFAE0F9995A
:103F5000FECF12BD01BDF89A80B580830F5F1F4F61
:103F6000043A110511F03196F2CFECEFFAE0F9992D
:103F7000FECF12BD01BDF89A80B580830F5F1F4F41
:103F8000083A110511F03196F2CFE0EBFAE0F99919
:103F9000FECF12BD01BDF89A80B580830F5F1F4F21
:103FA0000C3A110511F03196F2CFE0EFFAE0F999F1
:103FB000FECF12BD01BDF89A80B580830F5F1F4F01
:103FC000003B110511F03196F2CFE4EFFAE0F999D8
:103FD000FECF12BD01BDF89A80B580830F5F1F4FE1
:103FE000043B110511F03196F2CFE8EFFAE0F999B0
:103FF000FECF12BD01BDF89A80B580830F5F1F4FC1
:10400000083B110511F03196F2CFEBE8F8E0F99991
:10401000FECF12BD01BDF89A80B580830F5F1F4FA0
:10402000043C110511F03196F2CFE6ECF5E0F99978
:10403000FECF12BD01BDF89A80B580830F5F1F4F80
:10404000083C110511F03196F2CFE0EDF4E0F9995A
:10405000FECF12BD01BDF89A80B580830F5F1F4F60
:104060000C3C110511F03196F2CFFE013196F99911
:10407000FECF12BD01BDF89A80B580830F5F1F4F40
:104080000E3C110599F7FE013396F999FECF12BD4A
:1040900001BDF89A80B580830F5F1F4F003D110569
:1040A00011F03196F2CFFE013596F999FECF12BD8F
:1040B00001BDF89A80B580830F5F1F4F023D110547
:1040C00011F03196F2CFFE013796F999FECF12BD6D
:1040D00001BDF89A80B580830F5F1F4F043D110525
:1040E00011F03196F2CFFE013996F999FECF12BD4B
:1040F00001BDF89A80B580830F5F1F4F063D110503
:1041000011F03196F2CFFE013B96F999FECF12BD28
:1041100001BDF89A80B580830F5F1F4F083D1105E0
:1041200011F03196F2CFFE013D96F999FECF12BD06
:1041300001BDF89A80B580830F5F1F4F0A3D1105BE
:1041400011F03196F2CFFE013F96F999FECF12BDE4
:1041500001BDF89A80B580830F5F1F4F0C3D11059C
:1041600011F03196F2CFFE017196F999FECF12BD92
:1041700001BDF89A80B580830F5F1F4F0E3D11057A
:1041800011F03196F2CFFE017396F999FECF12BD70
:1041900001BDF89A80B580830F5F1F4F003E110567
:1041A00011F03196F2CFFE017596F999FECF12BD4E
:1041B00001BDF89A80B580830F5F1F4F023E110545
:1041C00011F03196F2CFFE017796F999FECF12BD2C
:1041D00001BDF89A80B580830F5F1F4F043E110523
:1041E00011F03196F2CFE2E1F5E0F999FECF12BD80
:1041F00001BDF89A80B580830F5F1F4F083E1105FF
:1042000011F03196F2CFE6E1F5E0F999FECF12BD5B
:1042100001BDF89A80B580830F5F1F4F0C3E1105DA
:1042200011F03196F2CFEAE1F5E0F999FECF12BD37
:1042300001BDF89A80B580830F3E110521F00F5F14
:104240001F4F3196F2CF0E94707CEDE9F2E064914D
:104250008F010BC0772767FD709586EA95E10E9474
:10426000CD950F5F1F4FF8016491662399F7E5EC38
:10427000F2E064918F010BC0772767FD709586EAA5
:1042800095E10E94CD950F5F1F4FF8016491662361
:1042900099F786EA95E16AE00E94CD9501C01CDCA1
:1042A000A0960FB6F894DEBF0FBECDBFCF91DF91C1
:1042B0001F910F9108952F923F924F925F926F92AC
:1042C0007F928F929F92AF92BF92CF92DF92EF92A6
:1042D000FF920F931F93DF93CF93CDB7DEB73C01CF
:1042E0001A012B01C901B801F301208231824282F7
:1042F00053820483158326833783C086D186E28662
:10430000F38684869586A686B78620E030E040E076
:1043100050E00E94A99C882311F410E001C012E033
:10432000F301608571858285938520E030E040E06F
:1043300050E00E94A99C882311F4EE2402C094E06E
:10434000E92EC501B40120E030E040E050E00E94D9
:10435000A99C882311F4FF2402C088E0F82E00E015
:10436000C201B10120E030E040E050E00E94A99C91
:10437000811101E0102B1E291F29F30111A3608177
:104380007181828193812091C40A3091C50A409144
:10439000C60A5091C70A0E94899F0E94189DF30186
:1043A000608B718B828B938B648175818681978101
:1043B0002091C80A3091C90A4091CA0A5091CB0A8B
:1043C0000E94899F0E94189DF301648B758B868BD8
:1043D000978B60857185828593852091CC0A309179
:1043E000CD0A4091CE0A5091CF0A0E94899F0E9427
:1043F000189DF301608F718F828F938F648575850F
:10440000868597852091D00A3091D10A4091D20AB1
:104410005091D30A0E94899F0E94189DF301648FD6
:10442000758F868F978FCF91DF911F910F91FF909E
:10443000EF90DF90CF90BF90AF909F908F907F9044
:104440006F905F904F903F902F9008958F929F9222
:10445000AF92BF92CF92DF92EF92FF920F931F9392
:10446000DF93CF93CDB7DEB7FC0110A224DFCF914D
:10447000DF911F910F91FF90EF90DF90CF90BF9051
:10448000AF909F908F900895CF93DF93EC01FB0145
:1044900060E0208131814281538188819981AA81A4
:1044A000BB81281739074A075B070CF461E02481B8
:1044B0003581468157818C819D81AE81BF812817CE
:1044C00039074A075B070CF4626020853185428515
:1044D000538588859985AA85BB85281739074A079A
:1044E0005B070CF4646024853585468557858C858B
:1044F0009D85AE85BF85281739074A075B070CF4F1
:104500006860862FDF91CF910895CF93DF93EC0100
:10451000FB0160E020813181428153818881998152
:10452000AA81BB81281739074A075B0709F061E0B8
:1045300024813581468157818C819D81AE81BF81E7
:10454000281739074A075B0709F062602085318523
:104550004285538588859985AA85BB8528173907A3
:104560004A075B0709F064602485358546855785D1
:104570008C859D85AE85BF85281739074A075B075F
:1045800009F06860862FDF91CF9108952F923F92B6
:104590004F925F926F927F928F929F92AF92BF9253
:1045A000CF92DF92EF92FF920F931F93DF93CF93FF
:1045B000CDB7DEB7A0970FB6F894DEBF0FBECDBF64
:1045C0009E8B8D8B1B01588F4F8B3A8F298F1C8FA1
:1045D0000B8F4091C6055091C7056091C805709139
:1045E000C9050091D0041091D1042091D2043091DA
:1045F000D3040F2EF0E0CF2EF0E0DF2EF0E0EF2E10
:10460000F0E0FF2EF02D4601570155DE8091C40ADF
:104610009091C50AA091C60AB091C70A898B9A8B5E
:10462000AB8BBC8BBC01CD01AD89BE892D913D9179
:104630004D915C910E94899F0E94189DED89FE8991
:10464000608B718B828B938B4090C80A5090C90A03
:104650006090CA0A7090CB0AC301B20124813581EF
:10466000468157810E94899F0E94189DAD89BE890D
:1046700054966D937D938D939C9357978090CC0A1D
:104680009090CD0AA090CE0AB090CF0AC501B40197
:1046900018962D913D914D915C911B970E94899F99
:1046A0000E94189DED89FE89608F718F828F938F94
:1046B000C090D00AD090D10AE090D20AF090D30AEC
:1046C000C701B60124853585468557850E94899F97
:1046D0000E94189DAD89BE895C966D937D938D93E4
:1046E0009C935F978E010F5F1F4F80E1F80111923D
:1046F0008A95E9F769897A898B899C89D1012D91FD
:104700003D914D915C910E94899F0E94189D698303
:104710007A838B839C83C301B201EF89F88D20815A
:104720003181428153810E94899F0E94189D6D832F
:104730007E838F839887C501B401A98DBA8D2D9191
:104740003D914D915C910E94899F0E94189D6987BF
:104750007A878B879C87C701B601EB8DFC8D208102
:104760003181428153810E94899F0E94189D6D87EB
:104770007E878F87988B80E19BE0B80185DE282EAD
:1047800080E19BE0B801C1DE482EAD89BE899096DC
:104790005C909097852D82258421282F30E091967A
:1047A0008C91919790E082239323892B09F465C023
:1047B000E0E18E2EEBE09E2E7CEEA72E75E0B72E6C
:1047C0003D01CC24DD243E8F2D8FE22DF0E0F8A3B7
:1047D000EF8F8D8D9E8D0C2C02C0959587950A9438
:1047E000E2F780FF3AC08F8D98A10C2C02C09595FE
:1047F00087950A94E2F7D3015096ED90FD900D91C4
:104800001C91539780FF08C022273327A9012E1936
:104810003F09400B510B02C0A8019701F4018081B0
:104820009181A281B381821B930BA40BB50B808372
:104830009183A283B383CA01B9010E944B9D9B015E
:10484000AC01D5016D917D918D919C910E94D09B81
:10485000F50160837183828393830894C11CD11C0A
:1048600084E090E0880E991EA80EB91E680E791E8D
:1048700094E0C916D10409F0ACCF842D8095852130
:1048800042208429AD89BE8990968C93A0960FB65C
:10489000F894DEBF0FBECDBFCF91DF911F910F9176
:1048A000FF90EF90DF90CF90BF90AF909F908F9050
:1048B0007F906F905F904F903F902F9008958F92D0
:1048C0009F92AF92BF92CF92DF92EF92FF920F939F
:1048D0001F938AEC95E040E050E060E070E00DEC62
:1048E0001CEC2CE43EE36A017B014A015B01AEDD76
:1048F0001F910F91FF90EF90DF90CF90BF90AF90FE
:104900009F908F900895EF92FF920F931F93CF93F4
:10491000DF93EC01E0909708F090980800919908D7
:1049200010919A08688179818A819B81A8019701F9
:104930000E94A99C882324F4E882F9820A831B83BD
:10494000E0909B08F0909C0800919D0810919E08B3
:104950006C817D818E819F81A80197010E94A99C15
:10496000882324F4EC82FD820E831F83E0909F084D
:10497000F090A0080091A1081091A208688579859F
:104980008A859B85A80197010E94A99C882324F40D
:10499000E886F9860A871B87E090E804F090E9042E
:1049A0000091EA041091EB04688179818A819B81EE
:1049B000A80197010E94B79E181624F4E882F98294
:1049C0000A831B83E090EC04F090ED040091EE0468
:1049D0001091EF046C817D818E819F81A8019701E8
:1049E0000E94B79E181624F4EC82FD820E831F836A
:1049F000E090F004F090F1040091F2041091F304BF
:104A0000688579858A859B85A80197010E94B79E54
:104A1000181624F4E886F9860A871B87DF91CF9160
:104A20001F910F91FF90EF9008958091AE08089527
:104A30000F931F93CF93DF938130910599F46F5FAC
:104A40007F4F09F055C08CEF95E00E94828885E782
:104A500096E00E9490108FEA98E06EE172E00E946A
:104A6000769A46C0892B09F043C06F5F7F4F09F0EB
:104A70003FC08FEA98E00E94E99A8FE995E0909311
:104A800041088093400880914708882321F084E4FE
:104A900098E00E940D67CCEFD7E00FE915E005C064
:104AA0006F9786E0C63CD80751F0198308838F8141
:104AB0008823B1F3CE0104960E940D67F1CF8FE9F0
:104AC00095E0998388838F81882321F0CE01049615
:104AD0000E940D678FE995E09093A6068093A50646
:104AE0008091AC06882321F089EA96E00E940D6748
:104AF000DF91CF911F910F91089580E090E06FEFCB
:104B00007FEF96CF81E090E06FEF7FEF91CF6F92D4
:104B10007F928F929F92AF92BF92CF92DF92EF924D
:104B2000FF920F931F93F82E6091C6087091C708EB
:104B30008091C8089091C9082091CA083091CB088B
:104B40004091CC085091CD080E94C49E3B014C017D
:104B500000D000D00DB71EB70F5F1F4F6091E40467
:104B60007091E504882777FD8095982F0E944B9DD2
:104B70002091F8043091F9044091FA045091FB041B
:104B80000E94899F20E030E040E752E40E94B09C00
:104B900020E030E048EC52E40E94B09C5B016C01E4
:104BA000F8016082718282829382F4828091A308EC
:104BB00085838BE798E062ED78E046EC58E020E0F2
:104BC00001E032E0E32E0E94FD4C8091D2089091EA
:104BD000D308A091D408B091D50880937B08909316
:104BE0007C08A0937D08B0937E088091D6089091B0
:104BF000D708A091D808B091D90880937F089093E6
:104C00008008A0938108B09382088091DA0890917F
:104C1000DB08A091DC08B091DD08809383089093B5
:104C20008408A0938508B09386088091DE0890914F
:104C3000DF08A091E008B091E10880938708909385
:104C40008808A0938908B0938A088DB79EB7069606
:104C50000FB6F8949EBF0FBE8DBF0E94C88E6093A2
:104C6000BE087093BF088093C0089093C1081F913D
:104C70000F91FF90EF90DF90CF90BF90AF909F90FB
:104C80008F907F906F900895CF92DF92EF92FF9276
:104C90000F931F9382ED98E036DE0E94C88E6093DA
:104CA000BE087093BF088093C0089093C1086091BC
:104CB0007B0870917C0880917D0890917E082091FE
:104CC000D2083091D3084091D4085091D5080E9461
:104CD000A99C882309F07AC060917F0870918008B0
:104CE00080918108909182082091D6083091D70850
:104CF0004091D8085091D9080E94A99C882309F0B6
:104D000065C06091F8047091F9048091FA04909163
:104D1000FB0420E030E040E752E40E94B09C7B01BD
:104D20008C0182ED98E066ED78E04AED58E02EEDDA
:104D300038E0E3EACE2EE8E0DE2E0E94F5568091C0
:104D4000D2089091D308A091D408B091D50880934F
:104D50007B0890937C08A0937D08B0937E08809197
:104D6000D6089091D708A091D808B091D90880931F
:104D70007F0890938008A0938108B0938208809167
:104D8000DA089091DB08A091DC08B091DD088093EF
:104D9000830890938408A0938508B0938608809137
:104DA000DE089091DF08A091E008B091E1088093BF
:104DB000870890938808A0938908B0938A081F9168
:104DC0000F91FF90EF90DF90CF9008956091E404F1
:104DD0007091E504882777FD8095982F0E944B9D60
:104DE0002091F8043091F9044091FA045091FB04A9
:104DF0000E94899F20E030E040E752E40E94B09C8E
:104E000020E030E048EC52E488CF2F923F924F925E
:104E10005F926F927F928F929F92AF92BF92CF924A
:104E2000DF92EF92FF920F931F93DF93CF9300D007
:104E300000D0CDB7DEB78C018330910508F051C1A9
:104E40003C01660C771C660C771C93012558374F84
:104E50003A83298380E090E0A0E0B0E0F90180830C
:104E60009183A283B3838BE798E06FE778E043E810
:104E700058E027E838E00E94E951F301EA50FB4F7F
:104E80006591759185919491025F1A4FF801E490B4
:104E900093012E52374F3E832D8320E030E040ECCB
:104EA0005FE30E94899F5B016C01FF24E7FCF094A3
:104EB0000F2D1F2DC801B7010E944B9D1B012C0116
:104EC000C601B501A20191010E94899FAD81BE81F9
:104ED0006D937D938D939C931397F301EC52FB4F4D
:104EE000FC83EB8360817181828193816093F804FC
:104EF0007093F9048093FA049093FB0420E030E06F
:104F000040E752E40E94B09C7B018C0182ED98E066
:104F100066ED78E04AED58E02EED38E0A3EACA2EBF
:104F2000A8E0DA2E0E94F5560E94D37480E090E04B
:104F3000A0E0B0E0E981FA8180839183A283B3830A
:104F40008BE798E06FE778E043E858E027E838E03F
:104F50000E94E951F301EE5FFA4F85909590A5907C
:104F6000B490C501B4019058A20191010E94899F9B
:104F7000AD81BE816D937D938D939C9313976091CA
:104F8000F8047091F9048091FA049091FB0420E0F8
:104F900030E040E752E40E94B09C7B018C0182ED3E
:104FA00098E066ED78E04AED58E02EED38E00E949A
:104FB000F5560E94D374C501B401A50194010E9465
:104FC000D09BA20191010E94899FED81FE816083A7
:104FD000718382839383AB81BC816D917D918D912F
:104FE0009C9120E030E040E05FE30E94899F609365
:104FF000F8047093F9048093FA049093FB0420E082
:1050000030E040E752E40E94B09C7B018C0182EDCD
:1050100098E066ED78E04AED58E02EED38E00E9429
:10502000F5560E94D374F301EF5EFA4F65917591C6
:1050300085919491F301E557F74FA080B180C2802C
:10504000D380A60195010E94D09B7B018C01CB01EE
:10505000D801E981FA8180839183A283B383F3012C
:10506000E35EFA4F6591759185919491F7E98F2EE2
:10507000F8E09F2E860C971CA60195010E94D09BFC
:10508000D4016D937D938D939C931397F301E75D0A
:10509000FA4F6591759185919491E8EEF4E06E0E6A
:1050A0007F1EA60195010E94D09BD3016D937D9335
:1050B0008D939C931397C701D801ED81FE81808366
:1050C0009183A283B38380E090E0A0E0B0E080937E
:1050D000F8049093F904A093FA04B093FB040E949F
:1050E000B57326960FB6F894DEBF0FBECDBFCF9135
:1050F000DF911F910F91FF90EF90DF90CF90BF90C5
:10510000AF909F908F907F906F905F904F903F9067
:105110002F9008954091E7085091E80820E630E08C
:10512000B901469F9001479F300D569F300D1124C5
:10513000682F772767FD7095C9018D50974F0E94A2
:10514000EA0C9C019093F2088093F10880E0232BF5
:1051500009F081E008958091F1089091F20801969C
:1051600060E070E04AE050E00C94610B8091F1083F
:105170009091F208019660E070E00C94040AAF92FE
:10518000BF92CF92DF92EF92FF920F931F93CF9334
:10519000DF931BE7E12E18E0F12EC2EDD8E000E02E
:1051A00010E0F801E15AFA4F8081B4DF882331F131
:1051B000DDDF5B016C01F801EB58F74F808188233C
:1051C00011F061E002C06091E20870E0882777FD8D
:1051D0008095982F0E944B9DF7012081318142815B
:1051E00053810E94899F9B01AC01C601B5010E94B9
:1051F000D09B688379838A839B8309C0F701808170
:105200009181A281B38188839983AA83BB830F5F35
:105210001F4F84E090E0E80EF91E2496043011053B
:1052200009F0BFCF86E476DF8823D9F09FDF7B01CA
:105230008C016093E3087093E4088093E5089093F1
:10524000E60820E030E040E050E00E94B79E1816EB
:1052500044F4E092F804F092F9040093FA041093F5
:10526000FB04DF91CF911F910F91FF90EF90DF90A2
:10527000CF90BF90AF90089582DF89E44BDF882301
:1052800051F074DF6093C6087093C7088093C80814
:105290009093C9080CC080E090E0A0E0B0E080935B
:1052A000C6089093C708A093C808B093C9088AE4B9
:1052B00031DF882351F05ADF6093CA087093CB081E
:1052C0008093CC089093CD08089580E090E0A0E012
:1052D000B0E08093CA089093CB08A093CC08B09319
:1052E000CD0808952F923F924F925F926F927F92D6
:1052F0008F929F92AF92BF92CF92DF92EF92FF92E6
:105300000F931F93DF93CF93CDB7DEB7C056D14035
:105310000FB6F894DEBF0FBECDBF0E94C88E6B01E2
:105320007C018090A6089090A708A090A808B09053
:10533000A9080E94C88EC75ADE4F688379838A8382
:105340009B83C955D1408091A6089091A708A09150
:10535000A808B091A908CB5ADE4F88839983AA8305
:10536000BB83C555D140E091B508F0E0EE0FFF1FBB
:10537000EE0FFF1FE759FD4E60817181828193819D
:105380000E94189D8B0160916F1270917012809134
:1053900071129091721220E030E040E05FE30E94D1
:1053A000D09B0E94189D2B018091A30A8823A1F411
:1053B00083EA9AE00E945397892B71F00E94C88E6D
:1053C0006093AB0A7093AC0A8093AD0A9093AE0AD7
:1053D00083EA9AE00E945D9780917706882309F41A
:1053E00057C1C701B60120E63AEE40E050E00E9406
:1053F000A5A069017A01C501B40120E63AEE40E0BA
:1054000050E00E94A5A0C21AD30AE40AF50A8CEF64
:1054100095E06FE070E043E050E098010E94A98BB6
:105420008CEF95E06FE070E047E050E020E030E086
:105430000E94A98B8CEF95E06FE070E046E050E0B1
:1054400092010E94A98BC701B6012CE330E040E035
:1054500050E00E94A5A08B019C018CEF95E06FE0CD
:1054600070E045E050E098010E94A98BC701B601A9
:105470002CE330E040E050E00E94A5A089019A01B1
:105480008CEF95E06FE070E044E050E098010E94FE
:10549000A98B0E94C88E2091AB0A3091AC0A409132
:1054A000AD0A5091AE0A621773078407950708F496
:1054B00071C386EA95E16AE272E00E94D39986EAB6
:1054C00095E16BE272E00E94FE9885E796E00E940B
:1054D0001310AB01BC0186EA95E12AE030E00E949E
:1054E000379886EA95E160E372E00E94FE9885E7CE
:1054F00096E00E941B10AB01BC0186EA95E12AE010
:1055000030E00E94379886EA95E169E372E00E94F4
:10551000FE9880914708882319F160915F08709187
:10552000600880916108909162086115710581059C
:105530009105B1F06D597F4F8F4F9F4F24E630E0BA
:1055400040E050E00E94A5A0609167087091680853
:105550008091690890916A080E94A5A0122F01C04D
:1055600010E0C75ADE4F688179818A819B81C955D5
:10557000D14020E63AEE40E050E00E94A5A039017B
:105580004A01CB5ADE4F688179818A819B81C5555A
:10559000D14020E63AEE40E050E00E94A5A0621A19
:1055A000730A840A950A86EA95E1612F4AE050E081
:1055B0000E94759886EA95E166E472E00E94FE9882
:1055C00085E796E00E941B107B018C0185E796E041
:1055D0000E9413105B016C01C401B301A801970183
:1055E0000E94A5A0CA01B901A60195010E945FA071
:1055F0007B018C0186EA95E1B801A7012AE030E041
:105600000E943798C7016CE370E00E9492A0BC0131
:1056100086EA95E14AE050E00E94CF9886EA95E15B
:1056200063E572E00E94FE98C7016CE370E00E949F
:1056300092A086EA95E14AE050E00E94CF9886EA7F
:1056400095E16AE272E00E94D3990E94C88E605F81
:10565000784D8F4F9F4F6093AB0A7093AC0A809345
:10566000AD0A9093AE0A86EA95E165E572E00E9484
:10567000FE9886EA95E1B401A3012AE030E00E9499
:10568000379886EA95E16AE272E00E94D39982C275
:1056900080917408882309F461C20E94C88E209109
:1056A000AB0A3091AC0A4091AD0A5091AE0A621734
:1056B00073078407950708F46DC2CE010996B801F7
:1056C0004AE00E94A59A8091A4029091A502A0911F
:1056D000A602B091A70289839A83AB83BC838D8392
:1056E0009E83AF83B8878E01055B1F4FF80111922F
:1056F00011921192119286E0DF011D928A95E9F7CD
:105700006091691270916A1280916B1290916C1283
:1057100020E030E040E05FE30E94D09B0E94189DB3
:105720001B012C016091631270916412882777FD30
:105730008095982F0E944B9D20E030E040E05FE391
:105740000E94D09B0E94189D5B016C01CE010F96B8
:10575000B1014AE00E94A59ACE014596B5014AE002
:105760000E94A59A4E010894811C911CCE010F96AF
:10577000B40144E050E020E030E00E94E49925E0EC
:10578000622E712C6C0E7D1ECE014596B30144E055
:1057900050E020E030E00E94E49986EA95E16EE571
:1057A00072E00E94FE9886EA95E1B4010E94D399C6
:1057B00086EA95E1B3010E94D399C801B4010E9421
:1057C000DF0CC80162E772E00E94DF0CC801B30180
:1057D0000E94DF0C86EA95E1B8010E94D3998DB74B
:1057E0009EB708970FB6F8949EBF0FBE8DBFEDB75A
:1057F000FEB7319695E5E92EF12CEC0EFD1EADB706
:10580000BEB71296FC92EE92119784E792E09383D2
:10581000828335822482B782A6820E94390DADB779
:10582000BEB718960FB6F894BEBF0FBEADBF86EADE
:1058300095E1B7010E94D3998CEF95E069E170E0A2
:10584000A7010E94C58A60916D1270916E128091BD
:105850006F129091701220E030E040E05FE30E9410
:10586000D09B0E94189DC35ADE4F688379838A8338
:105870009B83CD55D1406091651270916612882747
:1058800077FD8095982F0E944B9D20E030E040E00E
:105890005FE30E94D09B0E94189D5B016C011BAAD4
:1058A0001CAA1DAA1EAA1FAA18AE19AE1AAE8E01F6
:1058B000055E1F4FC801C35ADE4F68817981CD55FF
:1058C000D1404AE00E94A59ACE010F96B8010E94ED
:1058D000D49AC8010E94E99A8E010F5D1F4FC8013A
:1058E000B5014AE00E94A59ACE014596B8010E94F2
:1058F000D49AC8010E94E99ACE010F96B40143E000
:1059000050E020E030E00E94E499CE014596B301DA
:1059100043E050E020E030E00E94E4998E010D5C0D
:105920001F4FC801B4010E94DF0CC80162E772E09A
:105930000E94DF0CC801B3010E94DF0C8DB79EB737
:1059400008970FB6F8949EBF0FBE8DBFEDB7FEB798
:105950003196ADB7BEB71296FC92EE92119784E7DE
:1059600092E093838283C35ADE4FA881B981CD55DB
:10597000D140B583A483B782A6820E94390D8DB72A
:105980009EB708960FB6F8949EBF0FBE8DBF86EAED
:1059900095E1B7010E94D3998CEF95E06AE170E040
:1059A000A7010E94C58A1BAE1CAE1DAE1EAEFE0135
:1059B000FF96108211821282138260916F12709191
:1059C0007012809171129091721220E030E040E0EC
:1059D0005FE30E94D09B0E94189D1B012C016091E7
:1059E000651270916612882777FD8095982F0E9426
:1059F0004B9D20E030E040E05FE30E94D09B0E949E
:105A0000189D5B016C0187E2482E512C4C0E5D1EE7
:105A1000C201B1014AE00E94A59A0DE2C02ED12C2C
:105A2000CC0EDD1EC601B5014AE00E94A59AC20156
:105A3000B40143E050E020E030E00E94E499C60168
:105A4000B30143E050E020E030E00E94E4998E0191
:105A5000055C1F4FC801B4010E94DF0CC80162E75A
:105A600072E00E94DF0CC801B3010E94DF0CADB7E9
:105A7000BEB718970FB6F894BEBF0FBEADBFEDB757
:105A8000FEB731961296FC92EE92119784E792E05F
:105A90009383828335822482B782A6820E94390D45
:105AA000ADB7BEB718960FB6F894BEBF0FBEADBF68
:105AB00086EA95E1B7010E94D3998CEF95E06BE1FE
:105AC00070E0A7010E94C58A86EA95E16FE772E05F
:105AD0000E94FE9886EA95E1C35ADE4F688179817B
